:020000040800F2
:10000000400500209D010008131600082515000872
:1000100011160008D5030008591A00080000000056
:10002000000000000000000000000000171600089B
:1000300061040008000000001516000819160008E9
:10004000B7010008B7010008B7010008B7010008B0
:10005000B7010008B7010008B7010008B7010008A0
:10006000B7010008B7010008B7010008B701000890
:10007000B7010008B7010008B7010008B701000880
:10008000B7010008B7010008B7010008B701000870
:10009000B7010008B7010008B7010008B701000860
:1000A000B7010008B7010008B7010008B701000850
:1000B000B7010008B7010008B7010008B701000840
:1000C000B7010008B7010008B7010008B701000830
:1000D000B7010008B7010008B7010008B701000820
:1000E000B7010008B7010008B7010008B701000810
:1000F000B7010008B7010008B7010008B701000800
:10010000B7010008B7010008B7010008B7010008EF
:10011000B7010008B7010008B7010008B7010008DF
:10012000D9030008B7010008B7010008B7010008AB
:10013000B7010008B7010008B7010008B7010008BF
:10014000B7010008B7010008B7010008B7010008AF
:10015000B7010008B7010008B7010008B70100089F
:10016000B7010008B7010008B7010008B70100088F
:10017000B7010008B7010008B7010008000000003F
:10018000B7010008B7010008DFF80CD000F07AF8DA
:10019000004800479D1A0008400500200648804797
:1001A00006480047FEE7FEE7FEE7FEE7FEE7FEE75C
:1001B000FEE7FEE7FEE7FEE781160008890100087A
:1001C0002DE9F05F0546002092469B46884606468C
:1001D000814640241BE0284641464746224600F01F
:1001E00041F853465A46C01A914110D31146184659
:1001F000224600F028F82D1A67EB01084F462246E8
:100200000120002100F01FF817EB00094E41201ECD
:10021000A4F10104DFDC484631462A464346BDE8E6
:10022000F09FD2B201E000F8012B491EFBD27047CB
:100230000022F6E710B513460A4604461946FFF7B2
:10024000F0FF204610BD202A04DB203A00FA02F11C
:10025000002070479140C2F1200320FA03F31943B4
:1002600090407047202A04DB203A21FA02F0002156
:10027000704721FA02F3D040C2F1200291400843B6
:1002800019467047064C074D06E0E06840F0010350
:1002900094E8070098471034AC42F6D3FFF778FF94
:1002A000401B0008601B0008464910B54A6822F44C
:1002B00040324A604A6843681A434A6001684A68A3
:1002C00022F480724A6001684A68036942EA0322A4
:1002D0004A6001684A6822F040724A6001684A68D0
:1002E00083681A434A6001688A6822F400628A605F
:1002F00001688A68C3681A438A60334A816A9142F6
:1003000001688A6822F070628A6001688A680CD08D
:10031000836A1A438A6001688A6822F040528A60C0
:1003200001688A68C36A1A4301E022F040528A6079
:1003300001688A6822F002028A6001688A68037E86
:1003400042EA43028A6090F82010002901684A6856
:100350000FD042F400624A6001684A6822F46042A9
:100360004A6001684A68194C436A04EB43331A43F4
:1003700001E022F400624A600168CA6A22F4700255
:10038000CA620168CA6A838B114C04EB03531A4397
:10039000CA6201688A6822F400728A6001688A6809
:1003A00090F8303042EA43228A6001688A6822F479
:1003B00080628A6001688A68406942EA80208860B9
:1003C00010BD0000002301400100000F00E0FFFF0E
:1003D0000000F0FFFEE70000014800F079B90000DE
:1003E000E000002001681823CAB2103AB2FBF3F211
:1003F000054B6FF30901032A9B5CC36500D9091DF6
:100400008165084670470000201B000810B50146B2
:1004100000208B698A6A4FF0C07453B1B3F5005F56
:1004200015D072B1012A0CD0022A0AD0032A09D1B0
:1004300004E01AB1012A06D0022A03D1C96AC9010F
:1004400000D5012010BDC96AA142FAD010BD002A12
:10045000F7D0012AF2D0022AF3D0032AF3D010BD3C
:100460007047704730B590F83C20012A19D001221E
:1004700080F83C200A6807230468092A13D9E56834
:100480000A3A02EB420293409D43E5600A788B688A
:100490000A3A02EB420293400268D4682343D360D5
:1004A00010E0022030BD256902EB420293409D43DB
:1004B00025610A788B6802EB420293400268146956
:1004C000234313614A681F23072A13D20468656B0C
:1004D000521E02EB820293409D4365630B790A88AA
:1004E0005B1E92B203EB83039A4003685C6B22436A
:1004F0005A6327E004680D2A12D2256BD21F02EB43
:10050000820293409D4325630B790A88DB1F92B2D8
:1005100003EB83039A4003681C6B22431A6311E0C8
:10052000E56A0D3A02EB820293409D43E5620B7946
:100530000A880D3B92B203EB83039A400368DC6A9E
:100540002243DA62164B0468144A9C4206D10C68B6
:10055000122C03D1546844F48004546004689C4213
:1005600017D10B68102B01D0112B12D1536843F413
:1005700000035360096810290BD10A490A4A096827
:10058000B1FBF2F101EB8101490000E0491E0029B5
:10059000FCD1002180F83C10084630BD002301400A
:1005A000002001401400002040420F0070B50400FC
:1005B0004FF0000503D0206C002610B107E00120A9
:1005C00070BD204600F01CF8666484F83C60206C26
:1005D000C00610D4206C20F4885040F00200206443
:1005E0002046FFF761FE6664206C20F0020040F0B8
:1005F0000100206400E0012584F83C60284670BDBD
:1006000070B586B0064614216846FFF711FE1A49F8
:10061000306888422ED11948016841F48071016028
:10062000006816481438016841F001010160006853
:100630001020009003200025CDE9010569461048EF
:1006400000F080F9104C0F48C4E900050015A560C2
:10065000C4E90350400060618000C4E90605000160
:10066000C4E90805204600F003F908B1FFF7F9FED8
:10067000B463A66306B070BD002001404438024058
:100680000000024010640240E000002010B50400A9
:1006900002D0607910B106E0012010BD0020207169
:1006A000204600F005F801206071002010BD000018
:1006B00000680549884205D10448016841F4805129
:1006C000016000687047000000300240303802408E
:1006D0002DE9F047044665484FF41651A56D0068B2
:1006E0000027B0FBF1F82E6894F85C10082000FA9F
:1006F00001F1314210D021680A6852070CD50A680E
:1007000022F004020A6094F85C1000FA01F0A8607C
:10071000606D40F00100606594F85C104FF00109D5
:1007200009FA01F0304208D021684969090604D568
:10073000A860606D40F00200606594F85C100420D1
:1007400000FA01F0304208D021680968890704D511
:10075000A860606D40F00400606594F85C101020A3
:1007600000FA01F0304218D021680968090714D551
:10077000A86020680168490304D50068000308D513
:10078000A16C07E00168C90503D4016821F00801E4
:100790000160216C09B12046884794F85C10202044
:1007A00000FA01F030424FF0000631D021680968AC
:1007B000C9062DD5A86094F8350005282068016881
:1007C00006D0490344D5006800031DD4616C1CE0C9
:1007D00021F0160101602068416921F0800141612A
:1007E000206C08B9A06C20B12068016821F00801D4
:1007F000016094F85C103F208840A86084F8346061
:1008000084F83590216D1DE0E16B09B120468847E1
:10081000606D002828D0606DC00712D0052084F8D4
:1008200035002068016821F0010101607F1C474507
:1008300003D820680068C007F8D184F8346084F8D1
:100840003590E16C00290FD02046BDE8F0470847FD
:100850000168C905D8D4016821F01001016084F84D
:10086000346084F83590CFE7BDE8F08714000020AD
:100870002DE9F041044600F041F906465CB100253F
:1008800084F83450022084F835002068016821F093
:10089000010101600DE00120BDE8F08100F02EF9BA
:1008A000801B052805D920206065032084F83500C9
:1008B000F2E720680068C007F0D12268116820487C
:1008C0000140D4E901031843D4E903363343184304
:1008D00063691843A3691843E3691843236A1843FB
:1008E0000843616A042903D1D4E90B13194308436F
:1008F000106020684069666A20F0070130460E43A8
:10090000012704280CD1A06A0643E06A40B12046C2
:10091000FFF77CFD20B14020606584F83570BAE7B0
:10092000206846612046FFF75DFD94F85C203F217A
:1009300091408160656584F835700020ACE7000067
:100940003F8010F02DE9F04F00224FF00108032501
:100950004FF00F0E0B6808FA02F42340A3426ED149
:100960004E68012E05D0022E03D0112E01D0122E7A
:1009700012D186684FEA420C05FA0CF7BE43CF68E5
:1009800007FA0CF7374387604668A6430C79C4F32F
:100990000014944034434460C668570005FA07FCCD
:1009A0008C6826EA0C06BC403443C4604C68022CB8
:1009B00001D0122C15D14FEAD20400EB8404A346D7
:1009C000D4F820904FEA42744FEAD46A0EFA0AF63D
:1009D00029EA06090E6906FA0AF646EA0906CBF87C
:1009E000206004680E7924EA0C0406F0030606FA77
:1009F00007F646EA040606604C68E40062D5344C0B
:100A0000266846F4804626602468324C22F00306AD
:100A10003444A44624689607370F0EFA07F6B44309
:100A20002D4EB04201D1002624E02C4EB04201D11F
:100A300001261FE02A4EB04202D102261AE041E010
:100A4000284EB04201D1032614E0274EB04201D116
:100A500004260FE0254EB04201D105260AE0244EBF
:100A6000B04201D1062605E0224EB04201D1072650
:100A700000E0082606FA07F62643CCF800601E4E72
:100A800034684F689C43FF0300D51C4334601A4E02
:100A9000361D34684F689C43BF0300D51C43346047
:100AA000154E083634684F689C43FF0200D51C433E
:100AB0003460114E0C3634684F689C43BF0200D539
:100AC0001C433460521C102AFFF444AFBDE8F08F81
:100AD000443802400838014000000240000402404F
:100AE00000080240000C02400010024000140240C6
:100AF00000180240001C0240003C01400148806890
:100B0000704700000800002070B5040004D094F87D
:100B10003900002510B106E0012070BD84F838507E
:100B2000204600F0D1FC242084F839002068C168F8
:100B300021F40051C160204600F00CFF20680169DB
:100B400021F4904101612068416921F02201416155
:100B50002068416941F0080141612068C16841F4A1
:100B60000051C160E563202084F8390084F83A0020
:100B7000002070BD0248816802781144816070478E
:100B8000080000200B4810B5016841F400710160B5
:100B9000016841F480610160016841F48071016085
:100BA000032000F067F8002000F006F800F024F8B9
:100BB000002010BD003C024070B50D4D04464FF4BE
:100BC0007A712878B1FBF0F00A490968B1FBF0F0BE
:100BD00000F0FAFA48B9102C07D200222146501E24
:100BE00000F028F800206C6070BD012070BD00008E
:100BF00008000020140000200648016841F48041EC
:100C0000016000680348001F016841F080510160E5
:100C1000006870474438024000280ADB00F01F02D9
:100C20000121914040094FF0E02202EB8000C0F822
:100C300000117047F0B40E4B1B680D46C3F302233E
:100C4000C3F10706042E00D90426191D072901D275
:100C5000002300E0DB1E012404FA06F1491E2940AE
:100C600099409C40641E14402143F0BC00F0F6BE45
:100C70000CED00E0064900F0070208684FF6FF039C
:100C8000184040EA0220034A104308607047000001
:100C90000CED00E00000FA052DE9F0470E460500D6
:100CA00065D0DFF81481D8F80000F7B200F00F002B
:100CB000B04207D288F80070D8F8000000F00F00AA
:100CC000B04254D128683D4C810712D5400703D566
:100CD000206840F4E05020602878000703D52068A1
:100CE00040F4604020602068A96820F0F0000843CC
:100CF00020602878C0072DD030496868083901285D
:100D000012D0022813D0032811D0096889070029BE
:100D10002DDA216821F0030101432160FFF7EEFE87
:100D2000814641F2883A0EE009688903EFE70968D5
:100D30008901ECE7FFF7E2FEA0EB0901514502D97A
:100D40000320BDE8F0872068696800F00C00B0EB74
:100D5000810FEFD1D8F80010404601F00F01B142E9
:100D600007D90770006800F00F00B04201D00120E1
:100D7000E7E72878400705D52068E96820F4E050C7
:100D8000084320602878000706D52068296920F4E8
:100D9000604040EAC100206000F038F82168084A4D
:100DA000C1F30311515CC840064908600648006859
:100DB000FFF702FF0020C4E7003C02400838024071
:100DC000281B0008140000200C00002004480549DE
:100DD00000680968044AC1F38221515CC840704729
:100DE0001400002008380240381B00080448054958
:100DF00000680968044AC1F34231515CC840704739
:100E00001400002008380240381B0008154810B5AF
:100E1000006810F00C02144813D01449042A0FD0B3
:100E2000082A0ED10F4C241F2268236802F03F02CB
:100E30005B0207D52068C0F38810A0FB010106E023
:100E4000084610BD2168C1F38811A1FB00010023F1
:100E5000FFF7B6F92168C1F30141491C4900B0FB15
:100E6000F1F010BD083802400024F40040787D0104
:100E70002DE9F84F04006ED02078DFF83893C007D2
:100E8000A9F104054AD009F104000168C1F3810108
:100E9000012908D00068C0F3810002280AD1D9F8DE
:100EA0000000400206D52868800337D56068002816
:100EB000E1D033E06068B0F5803F10D0B0F5A02FEE
:100EC000286810D020F480302860286820F4802022
:100ED00028606068A8B1FFF711FE06460DE028689B
:100EE00040F48030F4E740F480202860F7E700BF4A
:100EF000FFF704FE801B642873D828688003F7D5A9
:100F00000CE0FFF7FBFD064605E000BFFFF7F6FD2E
:100F1000801B6428F0D828688003F7D42078DFF895
:100F2000988280074FF0000A3ED5A248001D016854
:100F300011F00C0F08D00068C0F3810002280BD11B
:100F4000D9F80000400207D42868800716D5E06869
:100F5000012800D112E029E1E068B8B10120C8F809
:100F60000000FFF7CBFD064605E000BFFFF7C6FD1A
:100F7000801B0228C0D828688007F7D52868216917
:100F800020F0F80040EAC10028600DE0C8F800A099
:100F9000FFF7B4FD064604E0FFF7B0FD801B022812
:100FA000AAD828688007F7D42078000722D5814E78
:100FB00082486169703671B101210160FFF79EFDC1
:100FC000074604E0FFF79AFDC01B022809D83068E5
:100FD0008007F7D50EE0C0F800A0FFF78FFD0746A9
:100FE00005E083E0FFF78AFDC01B02287ED8306849
:100FF0008007F7D42078400767D5DFF8B8B100271D
:101000000BF13C0BDBF80000C00008D4DBF800104B
:1010100041F08051CBF80010DBF800000127684E4A
:101020003068C00511D4306840F480703060FFF73C
:1010300065FD009006E000BFFFF760FD0099401AD3
:10104000022853D83068C005F6D55A4EA0686C36D1
:1010500001280FD00528306810D020F00100306042
:10106000306820F004003060A068B8B1FFF746FD9A
:1010700000900FE0306840F00100F4E740F0040019
:101080003060F7E7FFF73AFD0099411A41F28830E6
:10109000814266D830688007F4D50EE0FFF72EFD58
:1010A000009007E0FFF72AFD0099411A41F28830CD
:1010B000814256D830688007F4D4012F05D1DBF87F
:1010C000001021F08051CBF80010A069C0B339495D
:1010D000091D0968C1F38101022949D0022850463F
:1010E00007D0C8F86000FFF709FD00E039E00446CA
:1010F0003AE04746C8F86000FFF700FD064604E006
:10110000FFF7FCFC801B02282BD828688001F7D44D
:10111000D4E907010843A16A2A4A490802EB0141C0
:10112000626A41EA8211084394F82C1040EA016196
:10113000C9F8001001203866FFF7E0FC044606E01D
:1011400036E000BFFFF7DAFC001B022809D8286848
:101150008001F7D52CE000BFFFF7D0FC001B022870
:1011600002D90320BDE8F88F28688001F4D41FE07D
:101170000128F7D0D9F80000E26900F4800191421B
:1011800014D1226A00F03F0191420FD147F6C0719D
:10119000626A0140914209D1A26A00F44031914251
:1011A00004D1E16A00F07060884201D00120D9E7E3
:1011B0000020D7E70438024000004742800E474233
:1011C000007000400000FFFF10B5401EB0F1807FAE
:1011D00001D3012010BD4FF0E02460610F216017A2
:1011E00000F03CFC0020A06107202061002010BD21
:1011F00010B590F83C20012A22D0012280F83C2032
:10120000CA688C6822F4407222434C6822F48062DF
:1012100022430C6822F4006222430C6922F48052BB
:1012200022434C6922F400522243C969002322F46C
:1012300080420A4301684A6480F83C30002010BDB7
:10124000022010BD70B590F83C20012A31D0012455
:1012500080F83C40022280F83D2003685A689D686F
:1012600022F070060A6832435A60134B02689A42B1
:1012700014D0B2F1804F11D0104B9A420ED0104BC7
:101280009A420BD00F4B9A4208D00F4B9A4205D08E
:101290000E4B9A4202D00E4B9A4204D1496825F077
:1012A0008003194391603C3044700021017008466E
:1012B00070BD022070BD000000000140000400402D
:1012C00000080040000C00400004014000400140C4
:1012D0000018004010B5040003D094F83D0010B190
:1012E00007E0012010BD002084F83C00204600F0FB
:1012F0000DF8022084F83D00211D206800F0CEF991
:10130000012084F83D00002010BD000010B586B01B
:10131000044614216846FEF78BFF10492068884276
:1013200019D10F48016841F00101016000680C48C3
:101330001438016841F010010160006880200090BD
:101340000220019000200290039001200490694641
:101350000448FFF7F7FA06B010BD00000000014096
:10136000443802400010024070B5044690F83C003A
:10137000012817D0012584F83C50022084F83D0054
:101380002068826822F0770222F47F428260086837
:10139000502830D00DDC20284CD005DC98B3102824
:1013A0003BD147E0022070BD302843D0402834D1E3
:1013B00038E0602828D0702806D0B0F5805F2CD0A7
:1013C000B0F5005F29D10AE04A68083120680AC9EF
:1013D00000F0C8F92068816841F0770109E04A68A7
:1013E000083120680AC900F0BDF92068816841F41D
:1013F0008041816011E0CA684968206800F086FA7F
:101400005021206807E015E0CA684968206800F0AC
:101410008EFA6021206800F0AFF93C34657000203E
:10142000207070BDCA684968206800F06FFA4021DA
:101430002068F0E7226801461046ECE770B50446E4
:1014400090F83C0001280DD0012584F83C50022082
:1014500084F83D0042B1042A0AD0082A0CD00C2A94
:1014600011D10DE0022070BD206800F08DF90AE076
:10147000206800F0B9F906E0206800F0EBF902E01E
:10148000206800F01BFA3C3465700020207070BDAD
:1014900010B5040003D094F83D0010B107E001201E
:1014A00010BD002084F83C00204600F00CF802201B
:1014B00084F83D00211D206800F0F0F8012084F838
:1014C0003D00002010BD704710B586B004461421C1
:1014D0006846FEF7ADFE10492068884219D10F48D2
:1014E000016841F40021016000680C48103801686F
:1014F00041F001010160006801201221CDE90001E5
:101500000290032003900820049069460448FFF7E6
:1015100019FA06B010BD0000004C004040380240EF
:1015200000000240FEE700007FB50024114800944F
:10153000019402940E490394C0E90014846004618C
:10154000047680F820404FF08051C0E90A4101251F
:10155000C561C46080F830404561FFF727F804207A
:10156000CDE90005694602940248FEF77BFF7FBD86
:10157000002001401800002030B595B000240F94E1
:1015800010941194129413941C2108A81494FEF73B
:101590004FFE20216846FEF74BFE1C481A49C0E961
:1015A00000148460C460046144618461FFF792FEAA
:1015B0004FF40055CDE90F5411940FA9134812941C
:1015C000FFF7D2FE1148FFF763FF139413A90F48EA
:1015D0001494FFF737FE089409940A940B940C9422
:1015E0000D94002208A909480E94FFF727FF0094E4
:1015F000029401940394CDE9044569460348079495
:10160000FFF7F6FD15B030BD00000140600000207E
:10161000FEE7704770477047FFF7ACBA10B592B05D
:1016200030216846FEF704FE14210CA8FEF700FEE8
:101630001148016841F08051016000680F4801685D
:1016400041F4804101600068022000900120039075
:1016500010200024049006946846FFF709FC0F2030
:10166000CDE90C040E940F9400210CA81094FFF700
:1016700013FB12B010BD0000403802400070004063
:101680000548016841F47001016003494FF00060B2
:10169000803908607047000088ED00E0F0B502680E
:1016A000254C264D264E274F274B4FF0804CA0420D
:1016B00009D0604507D0A84205D0B04203D0B84257
:1016C00001D0984204D122F0700E4A6842EA0E021C
:1016D000A0421BD0604519D0A84217D0B04215D007
:1016E000B84213D0984211D0184DA8420ED0184DD0
:1016F000A8420BD0174DA84208D0174DA84205D0DC
:10170000164DA84202D0164DA84203D122F44075CE
:10171000CA682A434D6922F080022A4302608A681F
:10172000C2620A688262A04201D0984201D109696E
:10173000016301214161F0BD00000140000400404F
:1017400000080040000C004000040140004001403F
:10175000004401400048014000180040001C0040C7
:101760000020004010B5846842EA032224F47F443C
:101770000A432243826010BD826822F070020A434D
:1017800042F0070181607047F0B5026A22F0010261
:101790000262036A42688469124E24F073050C6881
:1017A0002C4323F002058B682B430D4DA84201D03A
:1017B000B04205D123F00807CB683B4323F0040374
:1017C000A84201D0B04205D14D6922F440721543C0
:1017D0008A692A4342608461496841630362F0BDBB
:1017E0000000014000040140F0B5026A22F010023E
:1017F0000262026A436884690D6824F4E64444EA9C
:1018000005248D6822F0200242EA05120F4D104E89
:10181000A84201D0B04206D1CF6822F0800242EA4D
:10182000071222F04002A84201D0B04207D14D6910
:1018300023F4406343EA85038D6943EA85034360EB
:101840008461496881630262F0BD000000000140CC
:1018500000040140F0B5026A22F480720262026A5A
:101860004368C46922F4007224F073050C68124EB8
:101870002C438D6842EA05220E4DA84201D0B042A9
:1018800006D1CF6822F4006242EA072222F4806285
:10189000A84201D0B04207D14D6923F4405343EA36
:1018A00005138D6943EA05134360C4614968C16348
:1018B0000262F0BD000001400004014030B5026A40
:1018C00022F480520262046A4268C3690D6823F4FC
:1018D000E64343EA05238D6824F4005444EA0534C2
:1018E000084DA84202D0084DA84204D14D6922F407
:1018F000804242EA85124260C36149680164046221
:1019000030BD0000000001400004014010B5036A32
:10191000046A24F001040462846924F0F00444EAB7
:10192000021423F00A020A438461026210BD10B55A
:10193000036A23F0100303628369046A23F470438B
:1019400043EA023224F0A00343EA011182610162FA
:1019500010BD00002DE9F041044600680169E2680D
:1019600021F44051114301612169A068E2690843F3
:101970006169114322680843D16849F20C639943B5
:101980000143D16020684169A26921F4407111438B
:101990004161E269192664253227B2F5004F2C48CF
:1019A0002C4922684FF000080CD08A4201D08242B4
:1019B00030D1FFF71BFA01466068830F8200A1FB5C
:1019C00006012EE08A4201D0824202D1FFF70EFAD0
:1019D00001E0FFF7FBF961684A18A0FB060148EB3C
:1019E0000803FEF7EDFBB0FBF5F213016FF01801F1
:1019F0004A4300EB820007EBC000B0FBF5F000F0BB
:101A0000F80103EB410100F00700084421688860F9
:101A1000BDE8F081FFF7DAF961688B0F8A00A0FB5F
:101A20000601FEF7CDFB0146B0FBF5F06FF01802A2
:101A3000424301EB820107EB0111B1FBF5F101F02B
:101A4000F00202EB001001F00F010844DEE7000095
:101A50000014014000100140FEE700000907090ED4
:101A6000002801DB034A02E0034A00F00F00815422
:101A70007047000000E400E014ED00E002E008C858
:101A8000121F08C1002AFAD170477047002001E0F8
:101A900001C1121F002AFBD170470000FFF772F846
:101AA000FFF7BCFD1948016841F0010101600168C0
:101AB000016841F0100101600168016841F4800192
:101AC00001600068002211463820FFF7B3F8382083
:101AD000FFF7A2F8FFF728FD0E490D4808600846F9
:101AE000FEF7D4FDFFF748FD0C480B490C220160BE
:101AF0004FF4E131416000218160C160C0E904120E
:101B00008161C161FFF700F8FEE700003038024054
:101B10000030024000000020004C0040A0000020E7
:101B2000000610160006101600000000000000005D
:101B30000102030406070809000000000102030473
:101B4000601B000800000020180000007C1A00083C
:101B5000781B000818000020280500008C1A0008D7
:101B60000000000000000000010000001000000064
:081B7000000000000024F40055
:040000050800018965
:00000001FF
