:020000040800F2
:10000000E0090020A1010008EF3B00085539000875
:10001000ED3B000871070008AD4300080000000038
:100020000000000000000000000000002F3F00085A
:1000300015260008000000002D3F0008313F000891
:10004000BB010008BB010008BB010008BB010008A0
:10005000BB010008BB010008BB010008BB01000890
:10006000BB010008BB010008BB010008BB01000880
:10007000BB010008BB010008BB010008BB01000870
:10008000BB010008BB010008BB010008BB01000860
:10009000BB010008BB010008BB010008BB01000850
:1000A000BB010008BB010008BB010008BB01000840
:1000B000C93F0008BB010008BB010008BB010008E4
:1000C000BB010008BB010008BB010008BB01000820
:1000D000BB010008BB010008BB010008BB01000810
:1000E000BB010008BB010008BB010008BB01000800
:1000F000BB010008BB010008BB010008BB010008F0
:10010000BB010008BB010008BB010008BB010008DF
:10011000BB010008BB010008BB010008BB010008CF
:100120008D250008BB010008BB010008BB010008C9
:10013000BB010008BB010008BB010008BB010008AF
:10014000BB010008BB010008BB010008BB0100089F
:10015000BB010008BB010008BB010008BB0100088F
:10016000BB010008BB010008BB010008BB0100087F
:10017000BB010008BB010008BB0100080000000033
:10018000BB010008BB010008DFF80CD000F070F9DB
:1001900000480047FD4A0008E009002040BA7047C7
:1001A0000648804706480047FEE7FEE7FEE7FEE711
:1001B000FEE7FEE7FEE7FEE7FEE7FEE7AD3F0008ED
:1001C000890100082DE9F05F0546002092469B4614
:1001D00088460646814640241BE02846414647465D
:1001E000224600F041F853465A46C01A914110D3B6
:1001F00011461846224600F028F82D1A67EB010830
:100200004F4622460120002100F01FF817EB00099D
:100210004E41201EA4F10104DFDC484631462A4647
:100220004346BDE8F09FD2B201E000F8012B491E21
:10023000FBD270470022F6E710B513460A46044683
:100240001946FFF7F0FF204610BD202A04DB203AB4
:1002500000FA02F1002070479140C2F1200320FA19
:1002600003F3194390407047202A04DB203A21FA17
:1002700002F00021704721FA02F3D040C2F12002BF
:10028000914008431946704710B541000CD0C0F3A7
:10029000C751962908DC7E2909DC06DB410204D01F
:1002A00000F0004040F07E5010BD002010BDC1F1B4
:1002B0009604C4F1200100FA01F1E04000F0FCF8DE
:1002C000A04010BD2DE9FE4F804681EA0300C00F1B
:1002D0000C46009021F0004123F00045B8EB0200ED
:1002E000A94105D24046214690461C460B4602468F
:1002F00023F00040104304D14046214603B0BDE83E
:10030000F08F270DC7F30A00C3F30A510290401A79
:100310000190402866DAC3F3130040F4801B009874
:10032000924620B10023D2EB030A63EB0B0B01983A
:100330005946C0F140025046FFF787FF06460D467A
:1003400050465946019A00F0A5F810EB08006141AB
:10035000002487EA115284EAE7731A433BD0009ADB
:100360003AB3019A012A4FEA075210DC001B61EBF5
:1003700002014FF0004202EA0752CDE90042001CA0
:1003800041F5801132462B4600F0D9F8B6E7001B44
:1003900061EB0201001C41F5801300185B4120183D
:1003A000A2F5001747EB030140EAD570B6196D417D
:1003B00011E06D084FEA360645EAC0754FEA07526C
:1003C000001B61EB0201001C41F5801149084FEA56
:1003D00030000019514132462B4603B0BDE8F04FC2
:1003E00000F0A0B80098012240000023D0EB0202E8
:1003F00063EBE073009821464FEAE074B8EB00002D
:1004000061EB0401E9E783F000435BE781F0004121
:1004100058E700F0004230F000400AD0C10D01F56D
:100420006071C0F3160042EA0151C208400711434F
:10043000704700200146704701F0004330B421F0BE
:10044000004150EA010206D00A0DA2F56072C1F324
:100450001301002A02DC30BC00207047440F44EA3C
:10046000C104C100E01830BC00EBC25000F024B859
:10047000064C074D06E0E06840F0010394E80700F1
:1004800098471034AC42F6D3FFF782FEF04C0008D8
:10049000104D0008202A06DBCB17203A41FA02F063
:1004A00043EAE07306E041FA02F3D040C2F12002D1
:1004B00091400843194670470029A8BF7047401C67
:1004C000490008BF20F00100704710B4B0FA80FC6A
:1004D00000FA0CF050EA010404BF10BC704749B1A7
:1004E000CCF1200421FA04F411FA0CF118BF012117
:1004F00021430843A3EB0C01CB1D0106000A002B8E
:10050000BEBF002010BC704700EBC3501044002950
:10051000A4BF10BC7047401C490008BF20F0010078
:1005200010BC704710B5002B08DA401C41F10001E7
:1005300092185B411A4301D120F0010010BD2DE952
:10054000F04D92469B4611B1B1FA81F202E0B0FA49
:1005500080F220329046FFF778FE04460F4640EACC
:100560000A0041EA0B0153465A46084303D120468C
:100570003946BDE8F08D114653EA010015D0C8F1A7
:1005800040025046FFF770FE05460E46504659465B
:100590004246FFF75AFE084301D0012000E0002048
:1005A000054346EAE0762C4337430A984FEA445322
:1005B000A0EB08004FEAD4240A304FF0000244EACE
:1005C00047544FEAD72502D500200146D1E701055F
:1005D00010196941DDE9084500196941BDE8F04D90
:1005E000A0E770B58D1810F8014B14F0030201D18B
:1005F00010F8012B231106D110F8013B03E010F88D
:10060000016B01F8016B521EF9D1B3B110F8012B47
:1006100004F00C048A1A0C2C04D0A2EB841203F10F
:10062000020308E010F8014BA2EB0422F7E712F8EE
:10063000014B01F8014B5B1EF9D5A942D3D3002031
:1006400070BD0000464910B54A6822F440324A6045
:100650004A6843681A434A6001684A6822F4807213
:100660004A6001684A68036942EA03224A600168F5
:100670004A6822F040724A6001684A6883681A43F7
:100680004A6001688A6822F400628A6001688A68A8
:10069000C3681A438A60334A816A914201688A6852
:1006A00022F070628A6001688A680CD0836A1A43FB
:1006B0008A6001688A6822F040528A6001688A680C
:1006C000C36A1A4301E022F040528A6001688A68D6
:1006D00022F002028A6001688A68037E42EA4302CD
:1006E0008A6090F82010002901684A680FD042F40F
:1006F00000624A6001684A6822F460424A60016808
:100700004A68194C436A04EB43331A4301E022F46C
:1007100000624A600168CA6A22F47002CA62016813
:10072000CA6A838B114C04EB03531A43CA620168F3
:100730008A6822F400728A6001688A6890F8303012
:1007400042EA43228A6001688A6822F480628A60F1
:1007500001688A68406942EA8020886010BD000014
:10076000002301400100000F00E0FFFF0000F0FF48
:10077000FEE70000144A136823F001031360134AD4
:10078000126801234AB9124A1268C2F30B02B2F589
:100790008A6F04BF0F4A136009D00F4A93609368B1
:1007A000002BFCD11060106888420AD007E0136863
:1007B000002BFCD1094A10601068884201D000204B
:1007C0007047012070470000002000E0002004E096
:1007D0000010005C084C025800300240004C0258E7
:1007E0002DE9F74F9CB006461E980025D0E904403D
:1007F00017901E9880691B901E98C06912901E98D1
:10080000806802901E98C06801901E98006B1A9034
:100810001E98C08C16901E98006A19901698002891
:1008200040F36F81D6E9000706F108010DF12809B0
:10083000D1E900AB1036FFF7B1FC80463846FFF730
:10084000ADFC07465046FFF7A9FC07905846FFF756
:10085000A5FC8646B54A08F0FF0009F1020C52F8E3
:10086000201012980B18C3F30900ADF828004FEAC6
:100870001821980ACBB2090A52F823301844C0F361
:100880000903ADF82A300A9B4FEA334ACBB252F83B
:10089000233003EB9023080AC3F30901ADF82C10B1
:1008A00052F8200000EB9320C0F30903ADF82E307E
:1008B0000B990CF106034FEA3149810AF8B252F85C
:1008C00020000144C1F3090C380AADF830C000F033
:1008D000FF0C000A52F82CC00CEB9121C1F3090C5B
:1008E000ADF832C0DDF830C04FEA3C4800F0FF0CF4
:1008F000000A52F82CC00CEB9121C1F3090CADF8A1
:1009000034C052F8200000EB9120C0F30901ADF88B
:10091000361003F10C010D9B4FEA3347830A079809
:10092000C0B252F82000034407984FEA102CC3F3DA
:100930000900ADF83800980A0CF0FF0352F8233094
:1009400018444FEA1C23C0F3090C03F0FF0BADF869
:100950003AC052F82BB0DDF838C00BEB90201B0AE0
:10096000C0F3090B21F802BB52F823304FEA3C4C8C
:1009700003EB9020C0F309034FEA902B0EF0FF0029
:1009800021F8023B52F820000F9B83444FEA1E20BF
:10099000CBF3090E21F802EB00F0FF0E4FEA3343D0
:1009A00052F82EE00EEB9B2B4FEA102ECBF30900F2
:1009B00021F8020B00914FEA9B210EF0FF0B4FEA4A
:1009C0001E2E52F82BB0CDF860E08B4400991098A1
:1009D000CBF3090EA1F800E0DDF860E000994FEAE2
:1009E000304052F82E2002EB9B22C2F3090BA1F8F3
:1009F00002B0920A11991292DFF834B1019A4FEACB
:100A000031412AFB0B22DFF82CB129FB0B22DFF846
:100A100028B128FB0B22DFF824B127FB0B22DFF8DB
:100A200020B12CFB0B22DFF81CB123FB0B22DFF8DB
:100A300018B120FB0B224FF4803B21FB0B2EDFF87B
:100A40000CB1029A2AFB0B22DFF804B129FB0B221E
:100A5000DFF800B128FB0B22DFF8FCB027FB0B22EC
:100A60004FEA3B4B2CFB0B22DFF8F0B023FB0B22B1
:100A7000DFF8ECB020FB0B22DFF8E8B021FB0B2203
:100A8000019201222AFB02F2DFF8DCA029FB0A22F4
:100A9000DFF8D89028FB0922DFF8D48027FB082252
:100AA000344F2CFB0722DFF8D0C023FB0C22334B42
:100AB00020FB0320324A21FB02000290AEF5801099
:100AC00017992218531A19994FEAE37CA3FB01479F
:100AD0000CFB0171002203FB021114F1004241F1F1
:100AE000000117904C001A98E10151FB10F01D997C
:100AF00020F38F0021F8150016986D1CA8423FF7CF
:100B000091AE1E98029981601E990198C8601E9945
:100B10001298C8611E9804611E99179848611E9921
:100B20001B9888611FB00020BDE8F08F24000020D2
:100B3000690078004E005B003700420024002D0061
:100B400015001C000A000F00030006009600880034
:100B5000AC00A200BA00B400C000BE00B400BA00ED
:100B6000A200AC0088009600060003000F000A00F7
:100B70001C0015002D002400420037005B004E00D1
:100B8000780069002DE9F74F9AB0044610690B9080
:100B90005069169090691990D0690C9090680290F5
:100BA000D06801901546106B1890E88C002700283B
:100BB00040F3BF81688D0DF13809012800F0CA812A
:100BC000C0B200EB40012378625C14F800C003EB74
:100BD000026214F810301B0403EB0C2302EB030831
:100BE000C0EBC00214F8203014F802C014F8122030
:100BF00003EB0C6C14F8113014F821101E0400EBF8
:100C00008003120414F803A014F8133006EB0A262C
:100C10000CEB060A00EB400C0CEBC00C14F8306037
:100C200014F80CC01B0406EB0C6C00EBC006A65DB0
:100C300003EB06230CEB030BC0EB0013E35C01EBAF
:100C4000036100EB800303EBC003E35C04EB0014DF
:100C500002EB03228E1800BFCD4808F0FF0150F8C8
:100C600021200C9911444FEA1822C1F3090302F024
:100C7000FF0CADF8383050F82CC009F102030CEB32
:100C80009121C1F3090CADF83AC0DDF838C0120A61
:100C90004FEA3C4902F0FF0C120A50F82CC00CEB52
:100CA0009121C1F3090CADF83CC050F8222002EBB1
:100CB0009121C1F30902ADF83E200F9A4FEA324864
:100CC0000AF0FF0250F8222002EB9121C1F3090C37
:100CD0004FEA1A22ADF840C002F0FF0C120A50F899
:100CE0002CC002F0FF0A0CEB9121C1F3090CADF806
:100CF00042C050F82AA0120A0AEB9121C1F3090A56
:100D0000ADF844A050F822200BF0FF0A02EB91222C
:100D1000C2F30901ADF8461050F82AA003F1120100
:100D20000AEB922A4FEA1B22CAF3090BADF848B02E
:100D300002F0FF0B119B50F82BB0DDF840C00BEB1D
:100D40009A2A4FEA122BCAF309024FEA9A2ACDF8DF
:100D500030A0ADF84A200BF0FF0A129A50F82AE0B2
:100D6000DDF830A04FEA3C4C4FEA33434FEA3242C1
:100D7000F2444FEA1B2BCAF3090E21F802EB50F89C
:100D80002BB00BEB9A2BCBF3090A21F802AB4FEAFD
:100D90009B2BCDF830B006F0FF0BDDF84CA050F8DF
:100DA0002BE0DDF830B0360AF344CBF3090E21F81E
:100DB00002EB4FEA9B2BCDF830B006F0FF0B4FEA69
:100DC0003A4A50F82BE0DDF830B0F3444FEA162EE3
:100DD000CBF3090621F8026B009114994FEA3146D2
:100DE0004FEA9B210EF0FF0B4FEA1E2E50F82BB05E
:100DF000CDF85CE08B440099CBF3090EA1F800E03C
:100E0000DDF85CE0009950F82E0000EB9B2BCBF353
:100E1000090048804FEA9B2115980C91DFF874B1C6
:100E200001994FEA304029FB0B11DFF86CB128FB28
:100E30000B11DFF868B12CFB0B11DFF864B123FB59
:100E40000B11DFF860B122FB0B11DFF85CB12AFB5C
:100E50000B11DFF858B126FB0B114FF4803B20FB40
:100E60000B1EDFF84CB1029929FB0B11DFF844B1DE
:100E700028FB0B11DFF840B12CFB0B11DFF83CB164
:100E800023FB0B114FEA3B4B22FB0B11DFF830B178
:100E90002AFB0B11DFF82CB126FB0B11DFF828B170
:100EA00020FB0B110191012129FB01F1DFF81C91BD
:100EB00028FB0911DFF818812CFB0811DFF814C199
:100EC00023FB0C11444B22FB0311444A2AFB021161
:100ED000434A26FB0211434A20FB02100290296A72
:100EE000AEF58010A1B10B9A4FF0000C1318169AB2
:100EF00016909A1AA2FB0168D31703FB018102FB2B
:100F00000C1116F1004241F1000149000B91084615
:100F10001899C00150FB11F0298D20F38F0001FBBF
:100F200007F21B997F1C21F81200E88CB8423FF7AA
:100F300041AE0298A8600198E8600C98E8610B98AF
:100F40002861169868611998A8611DB00020BDE855
:100F5000F08F00BF04F10801D4E9008AD1E900B69E
:100F600095F83400103410F0200F3FF475AE404671
:100F7000FFF714F980465046FFF710F982465846AD
:100F8000FFF70CF983463046FFF708F9064663E69B
:100F900024000020690078004E005B00370042000A
:100FA00024002D0015001C000A000F00030006009D
:100FB00096008800AC00A200BA00B400C000BE00D9
:100FC000B400BA00A200AC0088009600060003003E
:100FD0000F000A001C0015002D00240042003700FD
:100FE0005B004E00780069002DE9F74F14468146FA
:100FF000D4E9056086B015690490D4E902A0D2F85E
:101000001CB00390106B0290D08C0090106A01907D
:1010100000984FF00008002843DD00BF59F8020B8C
:10102000FFF7BCF82649C2B2C0F3072051F82220CE
:1010300051F820005A4400EB9221C2F30903C1F396
:10104000090063F30F074FEA912B60F31F471D4917
:101050004FEA374020FB01A11B4A20FB02FAA1F511
:10106000006029188B1B01994FEAE37CA3FB015612
:101070000CFB0161002203FB021115F1004241F15A
:10108000000106464D000298290451FB10F0079913
:1010900020F38F0021F81800009808F1010840455E
:1010A000BCDCC4F808A00398C4F81CB06661C4E9AD
:1010B00003050498A06109B00020BDE8F08F00008E
:1010C0002400002001000300030001002DE9F74F78
:1010D00014460646D4E9045084B04FF0000800904E
:1010E00090690390D4E90290D2F81CA00290106B92
:1010F0000190D08CD2F834B0002852D9608D0128EC
:101100005ED0C1B23078725C06EB410600EB022083
:101110002F49C2B2C0F3072051F8222051F8200015
:10112000524400EB9220C2F30903C0F3090163F3B8
:101130000F074FEA902A61F31F4726484FEA3741CD
:1011400021FB0090244A21FB02F9A0F500601BF06E
:10115000100F13D000992A18511A236A4FEAE17C24
:10116000A1FB035E0CFB03E3002201FB023115F13E
:10117000004241F100014D00009028460104019811
:1011800051FB10F0218D20F38F0001FB08F205992F
:1011900021F8120008F101001FFA80F8E08C4045A8
:1011A000ACD8C4F808900298C4F81CA0C4E90305A0
:1011B000009860610398A06107B00020BDE8F08F3F
:1011C00056F8020B1BF0200F18BFFEF7E7FF9FE752
:1011D0002400002001000300030001002DE9F74F67
:1011E000D2E9041384B0D2F818C0CDF80CC0D2E90B
:1011F0000256D2F830C0D769CDF808C0B2F82680C0
:10120000CDF80080D2F820C0CDF804C04FF0000C1B
:10121000B8F1000FC8BF4FF0000B64DD1CF0010FE8
:101220006CD090F8028090F803904FEA084808EBE1
:10123000092810F8049BC1444FEA9728354F09F05C
:10124000FF0A4FEA192957F82AA0D044C8F3090A1F
:101250006AF30F0409F0FF0AC9F3072957F82AA017
:1012600057F829700AEB9828C8F3090A6AF31F4453
:1012700007EB9827DFF8A0904FEA344AC7F3090834
:101280002AFB0969254E2AFB065608EB480506EBA2
:1012900045064FF001082AFB08F84544A9F5D8583F
:1012A0004144CB1A01994FEAE379A3FB01AE09FB54
:1012B00001E103FB0B111AF1004341F10001434628
:1012C0004900DDF808804FEA813959FB18F8DDF84C
:1012D000149028F38F0829F81C80DDF800800CF1A9
:1012E000010CC4459ADBD761C2E90413C2E9025676
:1012F0000398906107B00020BDE8F08F90F803805C
:1013000010F8019B4FEA084808EB092810F8019BE8
:1013100091E7000024000020010003000700060000
:101320002DE9F74FD2E9055183B0D2F810C00291F0
:10133000D2E90267D2F81C80116B0191516B0091C8
:10134000D18C0023002988BF4FF0000A72D9518D3B
:1013500001297CD0C9B210F8119010F801B04FEA01
:10136000094909EB0B2B90F8009001EB4101D9449E
:1013700000EB0100484909F0FF0B4FEA192951F829
:101380002BB00BEB9828C8F3090B6BF30F0409F093
:10139000FF0BC9F3072951F82BB051F829100BEBBB
:1013A0009828C8F3090B6BF31F4401EB9828DFF86A
:1013B000EC904FEA344BC8F309012BFB0979384F05
:1013C0002BFB076601EB410106EB410701262BFBD6
:1013D00006F60E44A9F5D851DDF8009019F0100F6B
:1013E00014D08C44ACEB0505D2F820C04FEAE57967
:1013F000A5FB0CBE09FB0CEC05FB0ACC1BF1004560
:101400004CF1000C4FEA4C0C0D4661464FEA813915
:10141000019959FB11F1B2F82890DDF810B009FBE1
:1014200003F921F38F012BF81910591C8BB2D18CC1
:1014300099428CD8C2F81C80C2E904C5C2E902678F
:101440000298906106B00020BDE8F08FFFE7009998
:1014500011F0200F16D013F0010F09D0817890F809
:101460000390090401EB092110F8049B894481E7EA
:10147000C17810F8019B090401EB092110F8019BC8
:10148000894477E7817890F80190090401EB0921FC
:1014900010F8039BEAE7000024000020010003008D
:1014A000070006002DE9F74F86B0824608984FF0F6
:1014B0000008D0E90445806904900898D0F81C9091
:1014C000D0E902B000900898006B03900898C08C97
:1014D00001900898006A02900198002869DD00BF19
:1014E0005AF8040BFEF75AFE0146C3B23B48090AFC
:1014F00050F8233003EB9922C2F3090363F30F067C
:10150000CBB250F8233003EB92220B0A03F0FF0C0E
:10151000C2F3090150F82CC01B0A0CEB922250F8C0
:101520002300C2F3090C00EB92296CF30F07C9F3F7
:10153000090061F31F4660F31F47294B009A4FEAE9
:1015400036414FEA374021FB03224FF4803320FB22
:101550000322244B21FB03B3DFF88CC020FB0C33A8
:101560000093012321FB03F1204B20FB031BA2F579
:10157000804021184A1B02994FEAE27CA2FB0145F8
:101580000CFB0151002302FB031114F1004241F155
:10159000000105464C000398610351FB10F00799C8
:1015A00020F38F0021F81800019808F10108404548
:1015B00096DC0898C0F808B008990098C8600898A8
:1015C000C0F81C900898046108984561089904982F
:1015D000886109B00020BDE8F08F000024000020E1
:1015E000030006000C000A000A000C0006000300BD
:1015F0002DE9F74F86B00546D2F810B0506900903B
:10160000906914460490D4E902A0D2F81C9001908D
:10161000106B0390506B0290D08C4FF000080028A4
:101620007DD9608D01287BD0C1B201EB41002A78C1
:10163000285C6B5C02EB006015F8112005EB81055E
:10164000120402EB032210444649C3B2000A51F8C7
:10165000233003EB9922C2F3090363F30F06C3B2ED
:1016600051F8233003EB9223020A02F0FF0CC3F37C
:10167000090051F82CC0120A0CEB932351F82210E8
:10168000C3F3090C01EB93296CF30F07C9F30901AC
:1016900060F31F4661F31F47334B019A4FEA364010
:1016A0004FEA374120FB03224FF4803321FB032212
:1016B0002E4B20FB03A3DFF8B8C021FB0C330193B2
:1016C000012320FB03F02B4B21FB030A0299A2F517
:1016D000804011F0100F15D000990BEB0002511A49
:1016E000236A4FEAE17CA1FB03BE0CFB03E300226B
:1016F00001FB02311BF1004241F100014900009061
:101700008B4608464103039851FB10F0218D20F3CE
:101710008F0001FB08F2079921F8120001E008E0B0
:1017200016E008F101001FFA80F8E08C40453FF612
:1017300078AFC4F808A00198C4F81C90C4E9030B62
:10174000009860610498A06109B00020BDE8F08FA6
:10175000029955F8040B11F0200F18BFFEF71EFD7B
:1017600072E7000024000020030006000C000A00BD
:101770000A000C00060003002DE9F74F92B0044662
:1017800014984FF0000AD0E9045680690F9014981D
:10179000D0F81CB0806802901498C068019014982A
:1017A000006B10901498C08C09901498006A0E90E9
:1017B000099800287EDD00BF54F8040B54F8021B82
:1017C0000491FEF7EBFC00900498FEF7E7FC03465B
:1017D00000995448C9B250F8211001EB9B2C009994
:1017E0000A0ACCF3090161F30F074FEA9C2102F0CA
:1017F000FF0C50F82CC061444FEA122C0CF0FF0B88
:10180000C1F3090250F82BB04FEA1C2C0BEB9121CD
:10181000C1F3090B6BF30F0850F82CC003F0FF0B5A
:101820000CEB912CCCF3090150F82BB0C3F3072338
:101830000BEB9C2CCCF3090B50F823006BF30F0936
:1018400000EB9C2BCBF3090062F31F4761F31F48A9
:1018500060F31F49DFF8D0C0019B4FEA37424FEADF
:1018600038414FEA394022FB0C33DFF8C0C021FB7E
:101870000C334FF4803C20FB0C33DFF8B4E0DDF890
:1018800008C022FB0ECC4FF01B1E21FB0ECCDFF854
:10189000A4E020FB0ECCCDF804C04FF0010C22FBDD
:1018A0000CF2DFF894C021FB0C21244A20FB02102B
:1018B000029000E022E0A3F5584029188A1B0E99F7
:1018C0004FEAE27CA2FB01560CFB0161002302FB04
:1018D000031115F1004241F1000106464D00109838
:1018E000E90251FB10F0139920F38F0021F81A0040
:1018F00009980AF1010A50453FF75EAF1499029822
:10190000886014990198C8601498C0F81CB01498A5
:1019100005611498466114990F98886115B00020EC
:10192000BDE8F08F240000200A000F00030006002D
:101930001900150015001900060003000F000A0029
:101940002DE9F74F90B005461069069050690B904D
:1019500090690F90D2F81CA090680290D068019016
:10196000106B0E901446506B0D90E08C4FF00009F8
:1019700000287DD9608D01287BD0C0B200EB4001EA
:101980002A786B5C15F800C002EB036215F8103082
:101990001B0403EB0C2302EB030B15F8202000EBD8
:1019A0008000285C05EB410502EB0020CDF810001B
:1019B00063480BF0FF0250F8222002EB9A21C1F39A
:1019C00009034FEA1B2263F30F06D3B2120A50F841
:1019D000233002F0FF0C03EB9123C3F3090150F80D
:1019E0002CC0120A0CEB9323C3F3090C6CF30F0702
:1019F00050F82220DDF810C002EB93230CF0FF0C0E
:101A0000C3F3090250F82CC061F31F460CEB93237B
:101A1000DDF810C0C3F3090ACCF3072C6AF30F08F2
:101A200050F82C0062F31F4700EB932ACAF3090019
:101A300060F31F48DFF80CC1019B4FEA36414FEAC3
:101A400037424FEA384021FB0C33DFF8FCC022FB61
:101A50000C334FF4803C20FB0C33DFF8F0B0DDF8A2
:101A600008C021FB0BCC4FF01B1B22FB0BCC01E071
:101A700042E051E0DFF8D8B020FB0BCCCDF804C039
:101A80004FF0010C21FB0CF1DFF8C8C022FB0C1158
:101A9000314A20FB02100D990290A3F5584011F035
:101AA000100F15D0069900230A180B99511A226AB3
:101AB0004FEAE17CA1FB02BE0CFB02E201FB032129
:101AC0001BF1004241F10001490006910B900846CC
:101AD000C1020E9851FB10F0218D20F38F0001FB05
:101AE00009F2119921F8120009F101001FFA80F999
:101AF000E08C48453FF63EAF0298A0600198C4F8DC
:101B00001CA0E060069820610B9860610F98A061AE
:101B100013B00020BDE8F08F55F804BB55F8020B58
:101B200004900D9810F0200F3FF442AF5846FEF796
:101B300035FB83460498FEF731FB049038E700003C
:101B4000240000200A000F00030006001900150001
:101B500015001900060003000F000A002DE9F74FD9
:101B600094B0824616984FF00009D0E904400F90D7
:101B70001698806912901698D0F81CB08068029070
:101B80001698C06801901698006B11901698C08C3A
:101B90000A901698006A10900A9800287EDD00BF0F
:101BA000FAE802010091FEF7F9FA04900098FEF7B6
:101BB000F5FA0146049A6948D2B250F8222002EBA5
:101BC0000B0C049A130ACCF3090262F30F054FEAD7
:101BD0009C2203F0FF0C50F82CC062444FEA132CF7
:101BE0000CF0FF0BC2F3090350F82BB04FEA1C2C8A
:101BF0000BEB9222C2F3090B6BF30F0650F82CC0CB
:101C000001F0FF0B0CEB922C50F82BB0CCF3090237
:101C10000BEB9C2CCCF3090B090A6BF30F0701F0BB
:101C2000FF0B63F31F4550F82BB062F31F460BEB1D
:101C30009C2C4FEA112B0BF0FF0ECCF3090150F84E
:101C40002EE04FEA1B2B0EEB9C2CCCF3090E50F828
:101C50002B006EF30F0800EB9C2CCCF309004FEA2D
:101C60009C2B61F31F4760F31F48DFF8F4E0DDF8B9
:101C700004C04FEA35434FEA36424FEA37414FEA54
:101C8000384023FB0ECCDFF8DCE022FB0ECCDFF883
:101C9000D8E021FB0ECC4FF4803E00E048E020FB72
:101CA0000ECCCDF800C0DFF8C4E0DDF808C023FB9F
:101CB0000ECC20FB1ECEDFF8B8C022FB0CEE21FBC1
:101CC0001CECCDF804C04FF0010C23FB0CF3DFF843
:101CD000A4C022FB0C32284B21FB0321274A20FB06
:101CE0000210DDF800C00290ACF500300F99221808
:101CF000531A10994FEAE37CA3FB014E0CFB01E160
:101D0000002203FB021114F1004241F100010F9087
:101D10004C001198A10251FB10F0159920F38F008F
:101D200021F819000A9809F1010948453FF738AF31
:101D300016990298886016990198C8601698C0F89C
:101D40001CB01698046116990F984861169912985C
:101D5000886117B00020BDE8F08F0000240000204B
:101D600015001C000A000F00030006002A002400D2
:101D700030002E00060003000F000A001C001500B2
:101D80002DE9F74F92B005461069059050690E9005
:101D900090691090D069079090680190D068029087
:101DA0001446106B0F90E08C4FF0000B002840F3AE
:101DB000DC80608D012800F0E98000EB40012A788A
:101DC0006B5C15F800C002EB036215F8103015F8D3
:101DD00011101B0403EB0C23D618C0EBC00215F83E
:101DE0002030AA5C03EB02620B0400EB8001695C0B
:101DF00005EBC00503EB0121114403916C48F1B2DE
:101E000050F8212007991144C1F30903320A63F302
:101E10000F07D3B2120A50F8233002F0FF0C03EB85
:101E20009121C1F3090350F82CC0120A0CEB912147
:101E3000C1F3090C6CF30F08DDF80CC050F8222038
:101E40000CF0FF0C02EB912150F82CC0C1F30902F9
:101E50000CEB912C0399CCF30906090A66F30F09E0
:101E6000CEB263F31F4750F8266062F31F4806EBBB
:101E70009C2C0E0A06F0FF0ECCF3090150F82EE060
:101E8000360A0EEB9C2CCCF3090E50F826006EF3AC
:101E90000F0A00EB9C2CCCF309004FEA9C2CCDF8E8
:101EA0001CC061F31F4960F31F4A424EDDF808C0B1
:101EB0004FEA37434FEA38424FEA39414FEA3A4056
:101EC00023FB06CC3C4E22FB06CC3C4E21FB06CC31
:101ED0004FF4803620FB06CEDFF8E4C0019E23FBE2
:101EE0000C6620FB1C66DFF8DCC022FB0C6621FBC5
:101EF0001C6CCDF808C04FF0010C23FB0CF3DFF88D
:101F0000C8C022FB0C32314B21FB0321304A20FB9D
:101F100002100190216AAEF50030A1B1059A4FF090
:101F2000000C13180E9A0E909A1AA2FB016ED3178A
:101F300003FB01E102FB0C1116F1004241F100012B
:101F400049000591084681020F9851FB10F0218D40
:101F500020F38F0001FB0BF213990BF1010B21F819
:101F60001200E08C58453FF724AF0198A06002981A
:101F7000E0600798E061059820610E986061109814
:101F8000A06115B00020BDE8F08F00BFF5E8026049
:101F9000039094F8340010F0200F3FF42FAF304638
:101FA000FEF7FCF806460398FEF7F8F8039025E7DD
:101FB0002400002015001C000A000F00030006008A
:101FC0002A00240030002E00060003000F000A0043
:101FD0001C0015002DE9F74F96B04FF0000A189835
:101FE000D0E9044011901898806912901898C0693F
:101FF00009901898806801901898C0680290189805
:10200000006B14901898C08C0B901898006A13906D
:102010000B98002840F3FA80169850F8041B50F8EB
:10202000042B039250F802BB16900846FEF7B6F850
:1020300004900398FEF7B2F803905846FEF7AEF806
:1020400000900498DFF8F0B1C0B25BF82010099856
:1020500001440498020AC1F3090060F30F05880ADD
:10206000D1B25BF821100844110AC0F3090262F3EF
:102070001F45CAB24FEA354C5BF8222002EB902292
:10208000080AC2F309015BF8200061F30F0600EBB8
:102090009220C0F3090161F31F4603994FEA3643CA
:1020A000C9B25BF8211001EB90200399C0F309023B
:1020B000090A62F30F07CAB2090A5BF8222001F08D
:1020C000FF0E02EB90205BF82EE0090AC0F3090234
:1020D0000EEB90205BF82110C0F3090E01EB90206D
:1020E000C0F30901800A099000986EF30F08C0B28E
:1020F00062F31F475BF820E0099861F31F488644AC
:1021000000984FEA3742000A0090CEF3090060F3CE
:102110000F090098CDF84090C0B24FEA38415BF803
:10212000200000EB9E2BCBF3090060F31F494FEA20
:102130009B2BCDF824B0DFF804E1DDF808B04FEABE
:1021400039402CFB0EBBDFF8F8E023FB0EBBDFF8B9
:10215000F4E022FB0EBBDFF8F0E021FB0EBB4FF4F6
:10216000803E20FB0EBBCDF800B0DFF8E0E0DDF8EC
:1021700004B02CFB0EBBDFF8D8E023FB0EBB4FF006
:102180004B1E22FB0EBBDFF8CCE021FB0EBBDFF8C1
:10219000C8E020FB0EBBCDF808B04FF0010B2CFBC4
:1021A0000BFCDFF8B8B023FB0BC3DFF8B4C022FB95
:1021B0000C322C4B21FB03212B4A20FB0210DDF8B3
:1021C00000B00190ABF57A3011992218521A139988
:1021D0004FEAE27CA2FB014B0CFB01B1002302FBA6
:1021E000031114F1004241F1000111904C001498C8
:1021F000610251FB10F0179920F38F0021F81A00AB
:102200000B980AF1010A50453FF706AF189901985B
:10221000886018990298C86018990998C861189838
:10222000046118991198486118991298886119B039
:102230000020BDE8F08F00002400002024002D00C5
:1022400015001C000A000F00030006003F003700C5
:10225000490045004500490037003F0006000300E3
:102260000F000A001C0015002D0024002DE9F74F77
:1022700094B00446106906905069109090691290CD
:10228000D069099090680290D06801901546106B53
:102290001190E88C4FF0000A002840F33081688DDF
:1022A000012800F03D81C0B200EB40012278635C60
:1022B00014F800C002EB036214F8103014F8111087
:1022C0001B0403EB0C2302EB030BC0EBC00314F85D
:1022D0002020E35C02EB03620B0400EB800114F8A6
:1022E00001C003EB0C231A44039214F8302000EBD6
:1022F000C000205C04EB410402EB0020CDF800009C
:1023000095480BF0FF0150F8212009990A44C2F3C7
:1023100009034FEA1B2163F30F06CBB2090A50F8F9
:10232000233003EB9222C2F3090363F31F46CBB2BF
:10233000090A50F8233050F8211003EB9222C2F31F
:10234000090301EB922163F30F07C1F3090262F362
:102350001F47039A4FEA364CD2B24FEA374350F840
:10236000222002EB9121039AC1F3090E4FEA122BAE
:102370000D9A6EF30F020BF0FF0E50F82EE00EEBED
:1023800091214FEA1B2EC1F3090B6BF31F420EF094
:10239000FF0B0D9250F82BB04FEA32420BEB91211C
:1023A0004FEA1E2BC1F3090E50F82BB06EF30F0845
:1023B0000BEB912BCBF309014FEA9B2BCDF824B00B
:1023C000DDF800B061F31F480BF0FF0B4FEA384116
:1023D00050F82BE0DDF824B0F344DDF800E04FEADC
:1023E0001E2ECDF800E0CBF3090E6EF30F09CDF8E9
:1023F0003C90DDF800E04FEA9B290EF0FF0B50F80F
:102400002B0000EB090BDDF83C90CBF3090060F3E7
:102410001F494FEA9B2BCDF824B0DFF840E1DDF8EF
:1024200004B04FEA39402CFB0EBBDFF834E123FB4C
:102430000EBBDFF830E122FB0EBBDFF82CE121FB05
:102440000EBB4FF4803E20FB0EBBCDF800B0DFF892
:102450001CE1DDF808B02CFB0EBBDFF814E123FB18
:102460000EBB4FF04B1E22FB0EBBDFF808E121FB39
:102470000EBBDFF804E120FB0EBBCDF804B04FF03B
:10248000010B2CFB0BFCDFF8F4B023FB0BC3DFF8D4
:10249000F0C022FB0C323B4B21FB03213A4A20FBCC
:1024A00002100290DDF800B0296AABF57A30A1B1D4
:1024B000069A4FF0000C1318109A9A1AA2FB01BE4C
:1024C000D31703FB01E102FB0C111BF1004241F1A8
:1024D000000149000691109008464102119851FBF5
:1024E00010F0298D20F38F0001FB0AF215990AF1F3
:1024F000010A21F81200E88C50453FF7D0AE02984F
:10250000A8600198E8600998E86106982861109829
:1025100068611298A86117B00020BDE8F08F00BF75
:1025200054F804BB54F8040B039054F8020B0090C9
:1025300095F8340010F0200F3FF4E2AE5846FDF756
:102540002DFE83460398FDF729FE03900098FDF7C2
:1025500025FE0090D4E600002400002024002D0079
:1025600015001C000A000F00030006003F003700A2
:10257000490045004500490037003F0006000300C0
:102580000F000A001C0015002D002400014800F077
:10259000EDB900003005002001681823CAB2103AD6
:1025A000B2FBF3F2054B6FF30901032A9B5CC36591
:1025B00000D9091D8165084670470000904B00084E
:1025C00010B5014600208B698A6A4FF0C07453B180
:1025D000B3F5005F15D072B1012A0CD0022A0AD0DF
:1025E000032A09D104E01AB1012A06D0022A03D134
:1025F000C96AC90100D5012010BDC96AA142FAD03B
:1026000010BD002AF7D0012AF2D0022AF3D0032A03
:10261000F3D010BD7047704730B590F83C20012AC8
:1026200019D0012280F83C200A6807230468092A8F
:1026300013D9E5680A3A02EB420293409D43E560F4
:102640000A788B680A3A02EB420293400268D46827
:102650002343D36010E0022030BD256902EB420223
:1026600093409D4325610A788B6802EB42029340B8
:1026700002681469234313614A681F23072A13D28F
:102680000468656B521E02EB820293409D436563B2
:102690000B790A885B1E92B203EB83039A400368AE
:1026A0005C6B22435A6327E004680D2A12D2256B23
:1026B000D21F02EB820293409D4325630B790A8867
:1026C000DB1F92B203EB83039A4003681C6B224327
:1026D0001A6311E0E56A0D3A02EB820293409D43D2
:1026E000E5620B790A880D3B92B203EB83039A40B3
:1026F0000368DC6A2243DA62164B0468144A9C427F
:1027000006D10C68122C03D1546844F48004546040
:1027100004689C4217D10B68102B01D0112B12D1E9
:10272000536843F400035360096810290BD10A4928
:102730000A4A0968B1FBF2F101EB8101490000E0AE
:10274000491E0029FCD1002180F83C10084630BD0C
:1027500000230140002001401C00002040420F00E7
:1027600070B504004FF0000503D0206C002610B1B6
:1027700007E0012070BD204600F01CF8666484F874
:102780003C60206CC00610D4206C20F4885040F0CF
:10279000020020642046FDF755FF6664206C20F09F
:1027A000020040F00100206400E0012584F83C6054
:1027B000284670BD70B586B0064614216846FDF700
:1027C00039FD1A49306888422ED11948016841F410
:1027D00080710160006816481438016841F00101F9
:1027E000016000681020009003200025CDE901055C
:1027F0006946104800F0F4F9104C0F48C4E9000590
:102800000015A560C4E90350400060618000C4E980
:1028100006050001C4E90805204600F077F908B173
:10282000FFF7F9FEB463A66306B070BD0020014057
:10283000443802400000024010640240300500208D
:1028400090F83C10012907D0012180F83C10016864
:102850008A68D20702D011E0022070478A6842F0ED
:1028600001028A602A492B4A0968B1FBF2F101EBA7
:10287000410101E0A1F101010029FBD101688A6851
:10288000D20743D0026C40F201639A4342F4807253
:1028900002644A68520505D5026C22F4005242F4E3
:1028A00080520264026CD3044FF0000204D5436CE2
:1028B00023F00603436400E0426480F83C20164A9B
:1028C0006FF022030B6051680068CA06134906D0F6
:1028D00088421BD1816811F0405F13D016E0884216
:1028E000F8D00F4A904203D1D1F80423D206F1D098
:1028F0000C4A90420AD1D1F8041301F01F011029AB
:10290000E8D303E0816841F0804181600020704796
:102910001C00002040420F00002301400020014025
:10292000002101400022014010B5040002D060796E
:1029300010B106E0012010BD00202071204600F0FB
:1029400005F801206071002010BD000000680549F5
:10295000884205D10448016841F480510160006853
:102960007047000000300240303802402DE9F04747
:10297000044665484FF41651A56D00680027B0FB6A
:10298000F1F82E6894F85C10082000FA01F1314249
:1029900010D021680A6852070CD50A6822F0040298
:1029A0000A6094F85C1000FA01F0A860606D40F0D5
:1029B0000100606594F85C104FF0010909FA01F01C
:1029C000304208D021684969090604D5A860606DC5
:1029D00040F00200606594F85C10042000FA01F0F9
:1029E000304208D021680968890704D5A860606D65
:1029F00040F00400606594F85C10102000FA01F0CB
:102A0000304218D021680968090714D5A8602068E9
:102A10000168490304D50068000308D5A16C07E0EC
:102A20000168C90503D4016821F008010160216C27
:102A300009B12046884794F85C10202000FA01F084
:102A400030424FF0000631D021680968C9062DD503
:102A5000A86094F8350005282068016806D049036D
:102A600044D5006800031DD4616C1CE021F0160100
:102A700001602068416921F080014161206C08B942
:102A8000A06C20B12068016821F00801016094F871
:102A90005C103F208840A86084F8346084F835904A
:102AA000216D1DE0E16B09B120468847606D00286B
:102AB00028D0606DC00712D0052084F8350020684A
:102AC000016821F0010101607F1C474503D820689F
:102AD0000068C007F8D184F8346084F83590E16C60
:102AE00000290FD02046BDE8F04708470168C90516
:102AF000D8D4016821F01001016084F8346084F8B2
:102B00003590CFE7BDE8F0871C0000202DE9F041AB
:102B1000044600F049F906465CB1002584F83450BB
:102B2000022084F835002068016821F0010101606D
:102B30000DE00120BDE8F08100F036F9801B05288A
:102B400005D920206065032084F83500F2E720686D
:102B50000068C007F0D12268116820480140D4E91C
:102B600001031843D4E90336334318436369184318
:102B7000A3691843E3691843236A18430843616A49
:102B8000042903D1D4E90B131943084310602068CA
:102B90004069666A20F0070130460E430127042889
:102BA0000CD1A06A0643E06A40B12046FFF708FD59
:102BB00020B14020606584F83570BAE7206846612E
:102BC0002046FFF7E9FC94F85C203F2191408160AA
:102BD000656584F835700020ACE700003F8010F098
:102BE0002DE9F04F00224FF0010803254FF00F0EA2
:102BF0000B6808FA02F42340A3426ED14E68012EFE
:102C000005D0022E03D0112E01D0122E12D18668CB
:102C10004FEA420C05FA0CF7BE43CF6807FA0CF7EF
:102C2000374387604668A6430C79C4F30014944088
:102C300034434460C668570005FA07FC8C6826EAEE
:102C40000C06BC403443C4604C68022C01D0122CEA
:102C500015D14FEAD20400EB8404A346D4F82090A7
:102C60004FEA42744FEAD46A0EFA0AF629EA0609D4
:102C70000E6906FA0AF646EA0906CBF820600468EF
:102C80000E7924EA0C0406F0030606FA07F646EA73
:102C9000040606604C68E40062D5344C266846F4AD
:102CA000804626602468324C22F003063444A44651
:102CB00024689607370F0EFA07F6B4432D4EB0423C
:102CC00001D1002624E02C4EB04201D101261FE0A4
:102CD0002A4EB04202D102261AE041E0284EB0420C
:102CE00001D1032614E0274EB04201D104260FE0A3
:102CF000254EB04201D105260AE0244EB04201D152
:102D0000062605E0224EB04201D1072600E0082643
:102D100006FA07F62643CCF800601E4E34684F686A
:102D20009C43FF0300D51C4334601A4E361D3468A3
:102D30004F689C43BF0300D51C433460154E0836D2
:102D400034684F689C43FF0200D51C433460114E29
:102D50000C3634684F689C43BF0200D51C43346076
:102D6000521C102AFFF444AFBDE8F08F44380240F3
:102D70000838014000000240000402400008024000
:102D8000000C0240001002400014024000180240F3
:102D9000001C0240003C0140426931EA020200D1BD
:102DA0000904816170470000014880687047000095
:102DB0001000002070B5040004D094F839000025FC
:102DC00010B106E0012070BD84F83850204600F0B4
:102DD00093FD242084F839002068C16821F4005153
:102DE000C160204601F060FA2068016921F4904139
:102DF00001612068416921F0220141612068416937
:102E000041F0080141612068C16841F40051C1608E
:102E1000E563202084F8390084F83A00002070BD72
:102E200002488168027811448160704710000020D8
:102E30000B4810B5016841F400710160016841F46C
:102E400080610160016841F480710160032000F03D
:102E500067F8002000F006F800F024F8002010BD0C
:102E6000003C024070B50D4D04464FF47A7128784D
:102E7000B1FBF0F00A490968B1FBF0F000F0FAFA92
:102E800048B9102C07D200222146501E00F028F825
:102E900000206C6070BD012070BD0000100000209B
:102EA0001C0000200648016841F480410160006870
:102EB0000348001F016841F08051016000687047BD
:102EC0004438024000280ADB00F01F020121914033
:102ED00040094FF0E02202EB8000C0F8001170477B
:102EE000F0B40E4B1B680D46C3F30223C3F1070673
:102EF000042E00D90426191D072901D2002300E061
:102F0000DB1E012404FA06F1491E294099409C4029
:102F1000641E14402143F0BC01F05CBA0CED00E0EB
:102F2000064900F0070208684FF6FF03184040EA20
:102F30000220034A10430860704700000CED00E0D7
:102F40000000FA052DE9F0470E46050065D0DFF8D0
:102F50001481D8F80000F7B200F00F00B04207D299
:102F600088F80070D8F8000000F00F00B04254D18B
:102F700028683D4C810712D5400703D5206840F4EE
:102F8000E05020602878000703D5206840F46040B6
:102F900020602068A96820F0F000084320602878AD
:102FA000C0072DD0304968680839012812D002289E
:102FB00013D0032811D00968890700292DDA216868
:102FC00021F0030101432160FFF7EEFE814641F24B
:102FD000883A0EE009688903EFE709688901ECE7A0
:102FE000FFF7E2FEA0EB0901514502D90320BDE83D
:102FF000F0872068696800F00C00B0EB810FEFD11A
:10300000D8F80010404601F00F01B14207D907700F
:10301000006800F00F00B04201D00120E7E72878F7
:10302000400705D52068E96820F4E0500843206097
:103030002878000706D52068296920F4604040EA16
:10304000C100206000F038F82168084AC1F303117C
:10305000515CC8400649086006480068FFF702FF57
:103060000020C4E7003C024008380240984B0008AA
:103070001C0000201400002004480549006809686D
:10308000044AC1F38221515CC84070471C000020F3
:1030900008380240A84B0008044805490068096840
:1030A000044AC1F34231515CC84070471C00002003
:1030B00008380240A84B0008154810B5006810F009
:1030C0000C02144813D01449042A0FD0082A0ED138
:1030D0000F4C241F2268236802F03F025B0207D5D1
:1030E0002068C0F38810A0FB010106E0084610BD6F
:1030F0002168C1F38811A1FB00010023FDF762F8EC
:103100002168C1F30141491C4900B0FBF1F010BD39
:10311000083802400024F40040787D012DE9F84F82
:1031200004006ED02078DFF83893C007A9F10405B9
:103130004AD009F104000168C1F38101012908D0D6
:103140000068C0F3810002280AD1D9F800004002CB
:1031500006D52868800337D560680028E1D033E0C1
:103160006068B0F5803F10D0B0F5A02F286810D06F
:1031700020F480302860286820F48020286060686F
:10318000A8B1FFF711FE06460DE0286840F4803034
:10319000F4E740F480202860F7E700BFFFF704FE63
:1031A000801B642873D828688003F7D50CE0FFF7EC
:1031B000FBFD064605E000BFFFF7F6FD801B642817
:1031C000F0D828688003F7D42078DFF89882800749
:1031D0004FF0000A3ED5A248001D016811F00C0F07
:1031E00008D00068C0F3810002280BD1D9F8000094
:1031F000400207D42868800716D5E068012800D16E
:1032000012E029E1E068B8B10120C8F80000FFF73A
:10321000CBFD064605E000BFFFF7C6FD801B022878
:10322000C0D828688007F7D52868216920F0F80001
:1032300040EAC10028600DE0C8F800A0FFF7B4FD27
:10324000064604E0FFF7B0FD801B0228AAD82868D4
:103250008007F7D42078000722D5814E8248616923
:10326000703671B101210160FFF79EFD074604E051
:10327000FFF79AFDC01B022809D830688007F7D5F0
:103280000EE0C0F800A0FFF78FFD074605E083E0E1
:10329000FFF78AFDC01B02287ED830688007F7D46C
:1032A0002078400767D5DFF8B8B100270BF13C0B59
:1032B000DBF80000C00008D4DBF8001041F08051BA
:1032C000CBF80010DBF800000127684E3068C0051D
:1032D00011D4306840F480703060FFF765FD0090D5
:1032E00006E000BFFFF760FD0099401A022853D89E
:1032F0003068C005F6D55A4EA0686C3601280FD04C
:103300000528306810D020F001003060306820F0CF
:1033100004003060A068B8B1FFF746FD00900FE0F0
:10332000306840F00100F4E740F004003060F7E757
:10333000FFF73AFD0099411A41F28830814266D880
:1033400030688007F4D50EE0FFF72EFD009007E00F
:10335000FFF72AFD0099411A41F28830814256D880
:1033600030688007F4D4012F05D1DBF8001021F07C
:103370008051CBF80010A069C0B33949091D096814
:10338000C1F38101022949D00228504607D0C8F86C
:103390006000FFF709FD00E039E004463AE04746E7
:1033A000C8F86000FFF700FD064604E0FFF7FCFCEC
:1033B000801B02282BD828688001F7D4D4E90701A4
:1033C0000843A16A2A4A490802EB0141626A41EABC
:1033D0008211084394F82C1040EA0161C9F80010EA
:1033E00001203866FFF7E0FC044606E036E000BF47
:1033F000FFF7DAFC001B022809D828688001F7D5FE
:103400002CE000BFFFF7D0FC001B022802D90320EC
:10341000BDE8F88F28688001F4D41FE00128F7D0B8
:10342000D9F80000E26900F48001914214D1226AC7
:1034300000F03F0191420FD147F6C071626A01402E
:10344000914209D1A26A00F44031914204D1E16A6B
:1034500000F07060884201D00120D9E70020D7E752
:103460000438024000004742800E4742007000408E
:103470000000FFFF10B5401EB0F1807F01D3012096
:1034800010BD4FF0E02460610F21601700F0A2FF33
:103490000020A06107202061002010BD7047704708
:1034A00010B590F83C20012A22D0012280F83C205F
:1034B000CA688C6822F4407222434C6822F480620D
:1034C00022430C6822F4006222430C6922F48052E9
:1034D00022434C6922F400522243C969002322F49A
:1034E00080420A4301684A6480F83C30002010BDE5
:1034F000022010BD70B590F83C20012A31D0012483
:1035000080F83C40022280F83D2003685A689D689C
:1035100022F070060A6832435A60134B02689A42DE
:1035200014D0B2F1804F11D0104B9A420ED0104BF4
:103530009A420BD00F4B9A4208D00F4B9A4205D0BB
:103540000E4B9A4202D00E4B9A4204D1496825F0A4
:103550008003194391603C3044700021017008469B
:1035600070BD022070BD000000000140000400405A
:1035700000080040000C00400004014000400140F1
:103580000018004010B5040003D094F83D0010B1BD
:1035900007E0012010BD002084F83C00204600F028
:1035A0000DF8022084F83D00211D206800F020FD68
:1035B000012084F83D00002010BD000010B5006817
:1035C0000E49884206D10E48016841F001010160B0
:1035D000006810BDB0F1804FFBD10948001F0168A1
:1035E00041F0010101600068002211461C20FFF734
:1035F00077FCBDE810401C20FFF764BC00000140D0
:10360000443802400168CA6842F00102CA6000689A
:10361000816801F00701062903D0016841F001012A
:1036200001600020704770B5044690F83C00012806
:1036300017D0012584F83C50022084F83D00206812
:10364000826822F0770222F47F4282600868502864
:1036500030D00DDC20284CD005DC98B310283BD1AD
:1036600047E0022070BD302843D0402834D138E0F4
:10367000602828D0702806D0B0F5805F2CD0B0F537
:10368000005F29D10AE04A68083120680AC900F0C1
:1036900013FD2068816841F0770109E04A6808312C
:1036A00020680AC900F008FD2068816841F4804163
:1036B000816011E0CA684968206800F0D1FD50219E
:1036C000206807E015E0CA684968206800F0D9FD65
:1036D0006021206800F0FAFC3C3465700020207006
:1036E00070BDCA684968206800F0BAFD40212068B2
:1036F000F0E7226801461046ECE7704770B50446D3
:10370000006801694FF00005C943890715D4C168F5
:10371000C943890711D4E91E01610120207720687F
:1037200080698007204602D0FFF7E7FF04E000F041
:10373000C2F8204600F0DCF8257720680169C9430B
:10374000490717D4C168C943490713D46FF004016E
:103750000161022020772068806910F4407F2046B4
:1037600002D0FFF7CAFF04E000F0A5F8204600F001
:10377000BFF8257720680169C943090716D4C168D5
:10378000C943090712D46FF00801016104202077B2
:103790002068C0698007204602D0FFF7AEFF04E032
:1037A00000F089F8204600F0A3F825772068016929
:1037B000C943C90617D4C168C943C90613D46FF0F9
:1037C00010010161082020772068C06910F4407F53
:1037D000204602D0FFF791FF04E000F06CF820468D
:1037E00000F086F8257720680169C943C90708D128
:1037F000C168C943C90704D1891E0161204600F090
:1038000078F820680169C943090609D4C168C94329
:10381000090605D46FF0800101612046FFF73EFEE6
:1038200020680169C943490609D4C168C9434906EA
:1038300005D46FF040010161204600F05BF820687C
:103840000169C94389060BD4C168C943890607D4F5
:103850006FF0200101612046BDE87040FFF71FBEF8
:1038600070BD70B5044690F83C0001280DD00125CC
:1038700084F83C50022084F83D0042B1042A0AD06A
:10388000082A0CD00C2A11D10DE0022070BD20684E
:1038900000F024FC0AE0206800F050FC06E02068FC
:1038A00000F082FC02E0206800F0B2FC3C3465705D
:1038B0000020207070BD704710B5040003D094F84C
:1038C0003D0010B107E0012010BD002084F83C004D
:1038D000204600F00CF8022084F83D00211D2068ED
:1038E00000F086FB012084F83D00002010BD7047E9
:1038F000704770477047000010B586B00446142129
:103900006846FCF797FC10492068884219D10F4897
:10391000016841F40021016000680C48103801681A
:1039200041F001010160006801201221CDE9000190
:103930000290032003900820049069460448FFF792
:103940004FF906B010BD0000004C00404038024066
:1039500000000240FEE700007FB5002412480094FA
:10396000019402940F49039401604FF48031C0E93F
:1039700001140461047680F820400903C0E90A417B
:103980000125C561C46080F830404561FEF7E8FE5E
:103990000420CDE90005694602940348FEF73CFE89
:1039A0007FBD00000020014028040020F0B585B054
:1039B00014216846FCF73EFC3248016841F01001D2
:1039C00001600168016841F004010160016801685B
:1039D00041F0800101600168016841F0010101606E
:1039E0000168016841F0020101600168016841F06D
:1039F0000801016000684FF6EF700325CDE900056E
:103A0000214E0024694602943046FFF7E9F8102061
:103A1000CDE90004694630460294FFF7E1F84FF61D
:103A2000FF760096CDE9015469461848FFF7D8F8AB
:103A30000095CDE9015469461548FFF7D1F849F6DC
:103A4000EE70CDE90005134F694602943846FFF742
:103A5000C7F8C02000900120CDE90104694638462E
:103A6000FFF7BEF80096CDE9015469460A48FFF712
:103A7000B7F80096CDE9015469460848FFF7B0F859
:103A800005B0F0BD3038024000100240000802408E
:103A9000001C02400000024000040240000C0240F2
:103AA00070B50B4800250121058041800949022499
:103AB00041600481448100F09BF807481021048094
:103AC00041808580BDE870400146014800F026B97C
:103AD00090050020D6A3707D0800002010B596B098
:103AE00000240F9410941194129413941C2108A88C
:103AF0001494FCF79FFB20216846FCF79BFB1D48B4
:103B00001B4901609F21C0E901147D21C0E9031414
:103B100044618461FFF736FD4FF480500F900FA988
:103B20001448FFF780FD1348FFF7C6FE139413A94E
:103B300010481494FFF7DEFC089409940A940B943F
:103B40000C940D94002208A90A480E94FFF789FEF0
:103B500000944FF40050CDE9044002940194039482
:103B6000694604480794FFF79BFC16B010BD00009F
:103B7000000001407004002010B58EB000240794AE
:103B8000089409940A940B941C2168460C94FCF741
:103B900051FB15484FF08041016041F63F71C0E98B
:103BA000011442F21071C0E9031480218161FFF712
:103BB000E9FC4FF48050079007A90B48FFF733FD4D
:103BC0000948FFF779FE0B940BA907480C94FFF7FF
:103BD00091FC0094019402940022694602480494E6
:103BE000FFF73FFE0EB010BDB0040020FEE77047A7
:103BF0002DE9F0470027C760076147618761C7610A
:103C0000076247628762C762076347638763C76368
:103C1000076400F10C044764DFF8F08006463D4677
:103C200039484146E763FCF7A5FD01280CBFC4F8FD
:103C30003880A563E5606560A5602560A5612561A4
:103C40006561708920853089608565633088304B77
:103C5000DFF8C0C0012804D0002818BF022718D000
:103C60002DE01878002804BF2B494FF4807026D12E
:103C70000A68401E4FEA825802EA0C0909EB9808CC
:103C8000C2F30952424441F8042BF1D101201870CB
:103C900015E01878012804BF1F494FF480700ED139
:103CA0000A68401E4FEA825802EA0C0909EB98089C
:103CB000C2F30952424441F8042BF1D11D707088BF
:103CC00038B1012818BF7F1C03D1606B40F0200081
:103CD0006063208D012804BF608D012803D1606BD3
:103CE00040F040006063706828B1606B40F01000E5
:103CF000606370682062A5851FB9606B00F1800069
:103D000060633846BDE8F087C2A507F4CDB5E8B5D5
:103D10002000002000FC0F002400002070B50D469C
:103D20002DED028B00F10C0400F14001406C6A4A59
:103D3000002690421EBF0420BDEC028B70BD0868B7
:103D400020F480720A602888052818BF06280BD046
:103D5000072818BF012807D0022818BF032803D05E
:103D6000042818BF082640D1A38C83423DD022F0FE
:103D70000F0008602A8840EA020010F0400F086037
:103D80001CBF10F0200F10F0100F00F00F0016D025
:103D900008282AD2DFE800F0290A0C0E10040608D1
:103DA0004E480AE04E4808E04E4806E04E4804E01F
:103DB0004E4802E04E4800E04E48E06315E0082817
:103DC00013D2DFE800F0120A0C0E100406084A486D
:103DD000F3E74A48F1E74A48EFE74A48EDE74A483F
:103DE000EBE74A48E9E74A48E7E7B4F92C20B5F998
:103DF0000400824203D1A28C2B889A4260D010F139
:103E00000C0F04DA6FF00B00A880403656E0332820
:103E100003DD3320A880403650E0DFED3E8A09788C
:103E200001F00F01B0EE688A082927D2DFE801F01F
:103E30002613181D2204090EF3EE008A9FED368A20
:103E40001CE0F2EE0C8A9FED358A17E0F2EE0A8A4A
:103E5000B2EE008A12E0F2EE068A9FED318A0DE0A2
:103E6000F2EE048AB7EE008A08E0F2EE028A9FEDD5
:103E70002D8A03E0F1EE0C8AB4EE008A00EE100AFF
:103E8000B3EE041AB8EEC00AC0EE010AB2EE040A9C
:103E900000F0B2FA20EE088A9FED230A70EE680A5D
:103EA000B0EE000A00F0A8FA20EE080A00F0BAFD11
:103EB000BCEEC00A84ED0C0AA888A0852888A084DE
:103EC0006888E0841EB9606B40F48070606330469F
:103ED000BDEC028B70BD0000CDB5E8B5E90F000860
:103EE000DD110008A5140008791700085D1B000803
:103EF000D51F0008E1070008CD10000821130008B5
:103F0000F115000841190008811D00086D22000804
:103F1000850B0008000000000000804226B4974195
:103F200026B417406F12033F0000004270477047ED
:103F3000FEF776BF30B591B030216846FCF77AF9CC
:103F400014210CA8FCF776F91648016841F080515D
:103F5000016000681448016841F480410160006814
:103F60000120039002241020049000940025069460
:103F70000820CDE90750A020CDE9090404200B90CA
:103F80006846FFF7CBF80CA90F2031C14FF4A050C1
:103F90000F90E002109005210CA8FEF7D3FF11B09E
:103FA00030BD000040380240007000400548016804
:103FB00041F47001016003494FF0006080390860EE
:103FC0007047000088ED00E010B5074C4021204606
:103FD000FEF7E2FE80212046FEF7DEFEBDE810403F
:103FE0000248FFF78BBB000000000240B004002035
:103FF000F0B50268254C264D264E274F274B4FF033
:10400000804CA04209D0604507D0A84205D0B042FC
:1040100003D0B84201D0984204D122F0700E4A6811
:1040200042EA0E02A0421BD0604519D0A84217D028
:10403000B04215D0B84213D0984211D0184DA842C2
:104040000ED0184DA8420BD0174DA84208D0174DDE
:10405000A84205D0164DA84202D0164DA84203D161
:1040600022F44075CA682A434D6922F080022A432F
:1040700002608A68C2620A688262A04201D09842E5
:1040800001D10969016301214161F0BD00000140D6
:104090000004004000080040000C00400004014003
:1040A0000040014000440140004801400018004029
:1040B000001C00400020004010B5846842EA032242
:1040C00024F47F440A432243826010BD826822F0B8
:1040D00070020A4342F0070181607047F0B5026A3E
:1040E00022F001020262036A42688469124E24F0DF
:1040F00073050C682C4323F002058B682B430D4D90
:10410000A84201D0B04205D123F00807CB683B4359
:1041100023F00403A84201D0B04205D14D6922F436
:10412000407215438A692A43426084614968416349
:104130000362F0BD0000014000040140F0B5026AD6
:1041400022F010020262026A436884690D6824F456
:10415000E64444EA05248D6822F0200242EA051272
:104160000F4D104EA84201D0B04206D1CF6822F0C8
:10417000800242EA071222F04002A84201D0B04277
:1041800007D14D6923F4406343EA85038D6943EA0F
:10419000850343608461496881630262F0BD000069
:1041A0000000014000040140F0B5026A22F4807270
:1041B0000262026A4368C46922F4007224F0730543
:1041C0000C68124E2C438D6842EA05220E4DA8421F
:1041D00001D0B04206D1CF6822F4006242EA072241
:1041E00022F48062A84201D0B04207D14D6923F485
:1041F000405343EA05138D6943EA05134360C461E4
:104200004968C1630262F0BD000001400004014042
:1042100030B5026A22F480520262046A4268C369BD
:104220000D6823F4E64343EA05238D6824F4005423
:1042300044EA0534084DA84202D0084DA84204D1F2
:104240004D6922F4804242EA85124260C3614968A6
:104250000164046230BD0000000001400004014020
:1042600010B5036A046A24F001040462846924F02E
:10427000F00444EA021423F00A020A438461026251
:1042800010BD10B5036A23F0100303628369046A4A
:1042900023F4704343EA023224F0A00343EA0111FD
:1042A0008261016210BD00002DE9F0410446006802
:1042B0000169E26821F44051114301612169A0685C
:1042C000E26908436169114322680843D16849F2F1
:1042D0000C6399430143D16020684169A26921F4CC
:1042E000407111434161E269192664253227B2F514
:1042F000004F2C482C4922684FF000080CD08A420D
:1043000001D0824230D1FEF7C7FE01466068830FBC
:104310008200A1FB06012EE08A4201D0824202D136
:10432000FEF7BAFE01E0FEF7A7FE61684A18A0FB9F
:10433000060148EB0803FBF745FFB0FBF5F213015C
:104340006FF018014A4300EB820007EBC000B0FB9E
:10435000F5F000F0F80103EB410100F0070008441C
:1043600021688860BDE8F081FEF786FE61688B0FEA
:104370008A00A0FB0601FBF725FF0146B0FBF5F024
:104380006FF01802424301EB820107EB0111B1FB10
:10439000F5F101F0F00202EB001001F00F0108440A
:1043A000DEE700000014014000100140FEE741007C
:1043B000080218BF04200A0E18BF40F001004FF099
:1043C0007F4232EA010108BF40F00200012808BF25
:1043D000052070470907090E002801DB034A02E0A7
:1043E000034A00F00F0081547047000000E400E031
:1043F00014ED00E00000000010B500222DED068B4A
:10440000B0EE409A19EE100AF0EE608A18EE901A9B
:10441000F7EE009AA0F5000C4FF00073BCF1FE4FD0
:10442000B0EE698A4FF07F4403EB410C03D2BCF13C
:10443000804F40D246E0BCF1804F43D300F1FF43B0
:10444000B3F1FE4F24D200BFB0EEC99A19EE100AA4
:10445000C1F3C7537F2B0CDB972B2CDAC3F19603E8
:104460004FF0010C0CFA03F3A3F1010C1CEA010F4D
:1044700009D0012000F03CFBDFEDFD0ABDEC068B0E
:1044800080EEA00A10BD0B4218BF9FEDFA8AD4E05F
:104490004300002B1CBF4FF08073B3EB400F0BD9D0
:1044A0009FEDF50A6FF01A0229EE009A19EE100A34
:1044B00010F0004FC8D1C0E0A0F50003B3F1FE4FEB
:1044C00073D321E003EB4103B3F1007F12D3F5EE88
:1044D000C08AF1EE10FA06D14300002B18BFB4EBEE
:1044E000400FABD9A4E001F0004141F0FC5108EECF
:1044F000901AA3E7B3F1807F06D218EE903AA3F5A5
:10450000000308EE903A99E720F000446FF0FF4373
:10451000DFF868C3E21862450FD321F0004213446C
:104520009C450AD8B0F17E5F74D04B0072D0B4F1D4
:10453000FF4F02D8B2F1FF4F04D939EE280ABDEC83
:10454000068B10BDB0F1FF4F0FD0C1F3C7527F2AC9
:1045500009DB972A11DAC2F19602012303FA02F26B
:10456000531E0B4205D0002208E011F0004F55D138
:1045700029E00A4218BF012200D1022210F5000FE3
:1045800014D028B3B0F1004F26D010F1814F4FD096
:104590004FF0FE42B2EB400F94BF012000200122F9
:1045A00002EBE171884239D10DE046E011F0004F95
:1045B00002D0012A37D031E0012A02BF9FEDB00AB4
:1045C000BDEC068B10BD9FEDAF0ABDEC068B10BD98
:1045D00011F0004F0CD121E0B1F1FF4F1ED011F5C9
:1045E000000F05D011F0004F15D00AB1012A09D0F3
:1045F000022000F07DFADFED9E0A89EEA00ABDECF4
:10460000068B10BD022000F073FA89EE890ABDEC1A
:10461000068B10BD0CE00AB1012A04D09FED940A6C
:10462000BDEC068B10BD9FED980ABDEC068B10BD4E
:10463000BDEC068BB7EE000A10BD944901449FED16
:1046400094AAB1F5005F34D819EE100AFBF7E1FE29
:104650009FED911B53EC112BFBF7D5FEFBF7ECFE06
:1046600000EE100AF5EE000A00EE60AAF6EE000A6F
:1046700020EE001A40EE4A0A61EE601ADFED880A69
:1046800020EE201ADFED870A60EE200A9FED860AF1
:1046900041EE800A31EE200A10EE100A00F50060AB
:1046A0006FF30B0000EE100A31EE401A71EE201A83
:1046B00099E000F58021CB0C03F00F0100EE901A79
:1046C000C3F307137F3BA0EBC350F8EEE00A00EE04
:1046D000100A1A449FED751AB0EE692A40EE819ACD
:1046E00030EE291A70EE690A11EE100A00F500602A
:1046F0006FF30B0001EE900A79EEE12A32EE803A78
:10470000C2EE012A20EEA20A10EE100A00F50060A7
:104710006FF30B0000EE100A40EE610A40EE430A10
:1047200020EEA21A70EE010A60EEA00ADFED601A18
:1047300000EEA1AA60EE021A30EE010A6AEE202A0B
:1047400061EE020A42EE800A31EEA00A10EE100A73
:1047500000F500606FF30B0000EE100A31EEC01A96
:1047600071EE200A9FED531A20EE011ADFED521A66
:1047700020EE210ADFED511A00EEA10A71EE000AC7
:1047800010EE900A00F500606FF30B0000EE900A47
:104790004B4831EE601A71EE001A784400EBC1000C
:1047A000D0ED002A90ED011A100100EE100AB8EECB
:1047B000C02A31EE810A30EE200A30EE220A30EEB5
:1047C000020A10EE100A00F500606FF30B0000EE15
:1047D000100A30EE422A32EE622A72EE600A70EE61
:1047E000C10A71EEE01A18EE900A00F500606FF34E
:1047F0000B0000EE900A78EEE02A20EE202A20EE50
:10480000221A30EEA20A01EE801A32EE010A10EEF0
:10481000100A00F500606FF30B0000EE100A72EE54
:10482000400A70EE811A70EE210AF5EEC00AF1EE30
:1048300010FA34BF9FED231A9FED231A71EE200A60
:10484000BDEEE01A11EE100A01EE100A011100EEA1
:10485000901AB8EEC11AF8EEE00A30EE410A9FED68
:104860001C1A30EE210ADFED191A00EE211A31E090
:1048700000000000000080BF0000004DFFFF3F006F
:10488000000080FF0000807F00000080001080C0DA
:10489000ABAAAA3E00000000000000000000F03FAC
:1048A00000B0B841D49A38BB3BAAB8410000803D63
:1048B0007EE24C3E00B03842D49AB8BB3BAA3842A4
:1048C00012040000000000BF0000003FFC596337E5
:1048D000C9FF753ADFED4A1A4A4900F00F0040EE71
:1048E000011A21EE800A794401EB800191ED001A52
:1048F0004549794401EB8001D1ED001A434901EEAD
:10490000801A794401EB800090ED000A31EE001A24
:10491000B0EEE00ADFED3E1AB4EEE10AF1EE10FA75
:1049200010D29FED3C0A30EE800ADFED3B0A20EE0C
:10493000200A68EE010ABDEC068BBCEEC00A20EE30
:10494000200A10BDDFED351A9FED359AB4EEE10A6D
:10495000F1EE10FA2ED2BDEEE00A68EE010A10EE7A
:10496000100A00EBD0725110C90501F17E5100EE22
:10497000101AA0EB6200C00560EE200A00F17E5024
:1049800000EE100A60EE808A18EE900AB4EB400F39
:1049900025D018EE900A400011D018EE900AFFF7CB
:1049A00006FD042808BF00F08BF8B0EE680ABDECE5
:1049B000068B10BDF5EEC00AF1EE10FA0FD2022000
:1049C00000F096F800F07CF810EE101A18EE100ABD
:1049D000BDEC068B61F31E0000EE100A10BD022034
:1049E00000F086F829EE090A18EE100ABDEC068BD5
:1049F00010EE101A61F31E0000EE100A10BD000048
:104A00001872313D86030000BA0300002A0300003B
:104A10000000FC420000FE420000004B000040434A
:104A20000000007010B52DED028BB0EE408A18EE3C
:104A3000100AFBF729FC01EE100A18EE100AB7EE77
:104A4000000A78EE410A10F0004F4FF07F4010EE60
:104A5000901A12D0B1F13F4F24BF10EE901AB0EB74
:104A6000410F12D210EE901AB1F17C5F1CDD10EEF6
:104A7000901AB0EB410F17D314E0B1F13F4F07D9B3
:104A800010EE901AB0EB410F02D331EE401A0BE05A
:104A900010EE901AB1F17C5F06DB10EE901AB0EBCD
:104AA000410F01D331EE001A18EE100ABDEC028B53
:104AB00011EE101A61F31E0000EE100A10BD000086
:104AC0009FED020A20EE000A70470000000000106F
:104AD00002E008C8121F08C1002AFAD170477047C7
:104AE000002001E001C1121F002AFBD17047000025
:104AF000014908607047000024040020FEF798F97F
:104B0000FFF718FAFEF752FF1C48016841F48001D4
:104B100001600068002211463820FEF7E1F93820D4
:104B2000FEF7D0F9FEF718FF164C15482060204616
:104B3000FDF7FAFE2068816841F001018160FEF70F
:104B4000CDFF124810490C2201604FF4E131416061
:104B500000218160C160C0E904128161C161FEF77A
:104B600029F9FEF79DFFFFF707F80848C838FDF759
:104B700067FE06484038FEF745FDFEE73038024044
:104B80000030024000000020004C0040F0040020F3
:104B900000061016000610160000000000000000BD
:104BA00001020304060708090000000001020304D3
:104BB00000000000000000000000B33FB2BE7D3ADC
:104BC00000002E40DFCF513800007E40BF51FABABE
:104BD00000E0A44019DAC3BA00E0C840C2ED8AB9C7
:104BE0000040EB40CD1F2CBA001006412AFFFABA54
:104BF00000C01541DFCFD13700D024419A97703AD9
:104C00000050334189478E3600404141E75B9D3873
:104C100000B04E41C00A98B900A05B41558F943A4C
:104C200000306841DA92C0BA0040744162B3C63ABB
:104C30000000803F00A0853F00908B3F00C0913F67
:104C40000030983F00F09E3F00F0A53F0050AD3F80
:104C50000000B53F0000BD3F0060C53F0020CE3FD3
:104C60000040D73F00C0E03F00C0EA3F0020F53FD2
:104C7000000000007D36AC397D3C3839EBDCF4387F
:104C8000320A7E39124C26399B6AED39A4EE8339FB
:104C90007F661E39F6398A392B426539A48211396B
:104CA0005B991F39C3EECD39DDE7C637A5A22F3991
:104CB0000000803FC3AA853FC2958B3FD3C3913F7D
:104CC000F037983F32F59E3FD7FEA53F3F58AD3FA6
:104CD000F304B53FA408BD3F2A67C53F8C24CE3FEF
:104CE000FD44D73FDFCCE03FC7C0EA3F7D25F53F1D
:104CF000104D00080000002028040000E205000814
:104D00001451000828040020B8050000E04A0008FB
:104D1000D2000112010462100D8324F41900FF0077
:104D200090C00101A850010138110303B8F000033D
:104D300048B1020460410204F0010406C0A000066C
:104D40005061020768F10107F8B103097891010980
:104D50000852030A20E2020AB0A2040AC060000A54
:104D60005021020B68B1010BF871030D7851010D50
:104D70000812030E20A2020EB0620410800101107E
:104D800010C2021128520211B812041338F2011392
:104D9000C8B20314E04203147003050FB830000FCB
:104DA00048F1011060810110F041031270210112DD
:104DB00000E2021318720213A832041578D100150C
:104DC0000892021620220216B0E2031830C201181F
:104DD000C0820319D812031968D3041978910019F5
:104DE0000852021A20E2011AB0A2031C3082011CF0
:104DF000C042031DD8D2021D6893041F3832011F20
:104E0000C8F20220E082022070430422F022022233
:104E100080E303239873032328340515A810201674
:104E2000001538D1011650610116E0210318600108
:104E30000118F0C10254201D199812041B68B1001A
:104E40001BF871021C1002021CA0C2031E20A2014A
:104E50001EB062035460F51F58B3041F6871001F31
:104E6000F831022010C20120A08203222062012218
:104E7000B0220323C8B20223587304252812012547
:104E8000B8D20226D062022660230428E00202285B
:104E900070C3032988530329181405246041002492
:104EA000F0010225089201259852032718320127A4
:104EB000A8F20228C08202285043042A20E2002AD5
:104EC000B0A2022BC832022B58F3032DD8D2012DE9
:104ED0006893032E8023032E10E4042E20A2002EBC
:104EE000B062022FC8F2012F58B30331D8920131BA
:104EF0006853033280E3023210A40434E0420134E8
:104F000070030335889302351854043798330237F9
:104F100028F4033840840338D044051C9000001C5A
:104F200020C1011D3851011DC811031F48F1001F88
:104F3000D8B10220F04102208002042250A10022B8
:104F4000E0610223F8F1012388B203A8202126B0F2
:104F5000E2022640A3042650610026E0210227F841
:104F6000B101278872032908520129981203B460FD
:104F7000152A4063042C1002012CA0C2022DB85245
:104F8000022D481304A820A130704303300004050B
:104F90002B4831002BD8F1012CF081012C804203E9
:104FA0002E0022012E90E2022FA872022F38330425
:104FB0003108D2003198920232B022023240E3032B
:104FC00034C0C201345083033568130335F8D30469
:104FD000350892003598520236B0E2013640A303FC
:104FE00038C08201385043033968D30239F893043A
:104FF0003BC832013B58F3023C7083023C0044043E
:105000003E8023023E10E4033F2874033FB834057A
:105010003138110031C8D10132E061013270220310
:1050200034F001013480C20254201D3528130437A6
:10503000F8B1003788720238A002023830C3033A50
:10504000B0A2013A406303542CC53BE8B3043BF8DB
:1050500071003B8832023CA0C2013C3083033EB069
:1050600062013E4023033F58B3023FE8730441B856
:1050700012014148D3024260630242F023044470AB
:1050800003024400C4034518540345A8140540F026
:10509000410040800202419892014128530343A8F5
:1050A00032014338F3024450830244E0430446B0E3
:1050B000E2004640A3024758330247E8F303496839
:1050C000D30149F893034A1024034AA0E4044AB0E8
:1050D000A2004A4063024B58F3014BE8B3034D680A
:1050E00093014DF853034E10E4024EA0A4045070F7
:1050F0004301500004035118940251A8540453284A
:10510000340253B8F40354D0840354604505240496
:04511000000000009B
:040000050800018965
:00000001FF
